:020000040800F2
:10000000680E00209D010008CB250008C91F0008CC
:10001000C92500087D020008E92A00080000000048
:10002000000000000000000000000000172A000887
:100030007F02000800000000CD250008192A0008F2
:10004000B7010008B7010008B7010008B7010008B0
:10005000B7010008B7010008B7010008B7010008A0
:10006000B7010008B7010008B7010008B701000890
:10007000B7010008B7010008B7010008B701000880
:10008000B7010008B701000809020008B70100081D
:10009000B7010008B7010008B7010008B701000860
:1000A000B7010008B7010008B7010008B701000850
:1000B000B7010008B7010008B7010008B701000840
:1000C000B7010008B7010008B7010008B701000830
:1000D000B7010008B7010008B7010008B701000820
:1000E000B7010008B7010008B7010008B701000810
:1000F000B7010008B7010008B7010008B701000800
:10010000B7010008B7010008B7010008B7010008EF
:10011000B7010008B7010008B7010008B7010008DF
:10012000B7010008B7010008B7010008B7010008CF
:10013000B7010008B7010008B7010008B7010008BF
:10014000B7010008B7010008B7010008B7010008AF
:10015000B7010008B7010008B7010008B70100089F
:10016000B7010008B7010008B7010008B70100088F
:10017000B7010008B7010008B7010008000000003F
:10018000B7010008B7010008DFF80CD000F02AF82A
:1001900000480047792B0008680E00200648804779
:1001A00006480047FEE7FEE7FEE7FEE7FEE7FEE75C
:1001B000FEE7FEE7FEE7FEE7A52A00088901000842
:1001C000D2B201E000F8012B491EFBD27047002299
:1001D000F6E710B513460A4604461946FFF7F0FF46
:1001E000204610BD064C074D06E0E06840F00103D4
:1001F00094E8070098471034AC42F6D3FFF7C8FFE5
:10020000902D0008B02D0008014800F0BBBA000096
:100210001C00002070B504460068816811F0010FD1
:1002200028D18168144A114215D18168D5432940EB
:10023000491C816000F042FF064616E0816811F01B
:10024000010F03D181682940491C816000F036FF0D
:10025000801B022809D9606D40F010006065A06D18
:1002600040F00100A065012070BD20680168C9430D
:10027000C907E3D1002070BD3F000080FEE7704752
:100280007047704770477047704700002DE9F0478E
:10029000044690F850009AB00D464FF0000801282F
:1002A00013D0012084F85000304E20684FF0000930
:1002B000B0420ED12E4F0097384602F0BBF882466E
:1002C000206802F0B7F860B10EE002201AB0BDE875
:1002D000F087616D41F02001616584F85090012044
:1002E000F4E7BAF1000F09D0606D40F020006065BE
:1002F0004FF0010884F850904046E7E71D48296810
:100300001D4A0029816840F61F7321F460411BD00B
:1003100094F830C041EA4C31D5F804C041EA0C01F0
:100320008160B168BE6801F0010106F001069268C3
:10033000314302F001021143DCD1AA68296811435C
:1003400082689A4311430EE08160B168BD6801F094
:10035000010105F001059268294302F001021143F1
:10036000C8D1816899438160C4E70000000004504F
:100370000001045000030450000204502DE9F84F1E
:1003800000270446009790F85000DFF8B8930D4618
:10039000B846012811D0012684F85060206802F088
:1003A00045F860B1606D40F0200060655FF00107C6
:1003B00084F85080384600F0DDB90220FBE7686819
:1003C0000C23052812D8022807D0032807D00428B8
:1003D00007D0052807D0062007E06B6006E0122052
:1003E00003E0182001E04FF480706860D5E9002137
:1003F000206803EA91131844036B01F01F014FF0CA
:100400001F0C0CFA01FCC2F3846223EA0C038A403D
:1004100013430363206802F009F88246206802F063
:1004200001F85AEA00001DD1AA682968206802F084
:100430000DF820686969C268C2F3C1025200914098
:100440002A69042A0FD000EB82002B68026EDFF8C5
:10045000F8C203F0F84302EA0C020B431A4342F0DD
:100460000041016672E0002101F0D6FF40032068E0
:100470004FF0000172D001F0CFFF90FAA0F0B0FA77
:1004800080F1286842036ED090FAA0F0B0FA80F0B4
:10049000814204D100221146206801F0E6FF0121CB
:1004A000206801F0B9FF400320684FF001015DD0E2
:1004B00001F0B2FF90FAA0F0B0FA80F12868420390
:1004C00059D090FAA0F0B0FA80F0814204D1002215
:1004D0000121206801F0C9FF0221206801F09CFF82
:1004E000400320684FF0020148D001F095FF90FAD8
:1004F000A0F0B0FA80F12868420344D090FAA0F04E
:10050000B0FA80F0814204D100220221206801F07B
:10051000ACFF0321206801F07FFF400320684FF00B
:10052000030133D001F078FF90FAA0F0B0FA80F127
:10053000286842032FD090FAA0F0B0FA80F08142F0
:1005400004D100220321206801F08FFF2068816818
:1005500011F0010F22D0ACE000E004E001F05CFFFC
:10056000C0F384618DE7C0F3846091E701F054FF2C
:10057000C0F38461A2E7C0F38460A6E701F04CFFFA
:10058000C0F38461B7E7C0F38460BBE701F044FFC8
:10059000C0F38461CCE7C0F38460D0E72A7B29688C
:1005A00050F8B03FC1F3120C23EA0C0302F0180C10
:1005B000664A22FA0CF20A4013430360E96849458F
:1005C00077D1286841031CD090FAA0F1B1FA81F1EB
:1005D000491C01F01F0109294FEA403132D8002996
:1005E00012D000BF90FAA0F1B1FA81F101F101013E
:1005F00001F01F0106FA01F609D100BFC0F38461C2
:1006000009E0C0F38461E3E7C0F38461EEE790FAA8
:10061000A0F1B1FA81F101F1010101F01F0146EAF7
:10062000816102D1C0F3846003E090FAA0F0B0FAD7
:1006300080F000F1010000F01F0000EB400041EAF3
:10064000005132E000290ED090FAA0F1B1FA81F108
:1006500001F1010101F01F0106FA01F606D100BF08
:10066000C0F3846106E0C0F38461F1E790FAA0F181
:10067000B1FA81F101F1010101F01F0146EA816146
:1006800002D1C0F3846003E090FAA0F0B0FA80F0E9
:1006900000F1010000F01F002D4A00EB400002EBCA
:1006A000005041EA000141F00071AA68206801F0A1
:1006B000CDFE28482A6802423FF47AAE2648816877
:1006C000264E274B274D01F0E071B2421CD10E029D
:1006D0001AD422689A4202D0AA427FF469AE826894
:1006E00041F4000122F0E0720A4382601E481F4973
:1006F0000068B0FBF1F000EB4000800000E0401E1D
:1007000000900028FBD153E6194EB24209D1CE0128
:1007100007D422689A4201D0AA42F4D141F08071F4
:100720000AE06FF00045EA42EDD14A02EBD42268BC
:100730009A42E8D141F48001826822F0E0720A43D3
:10074000826035E600007F4000F0FF03FFFF0700F6
:10075000000020FE0000088000030450000052C783
:10076000000004500002045010000020400D03005F
:10077000000084CB18BCBDE8E08F7047704700686C
:10078000006C70472DE9F05F044600680668456814
:10079000DFF854B2DBF8080000F01F07B0070ED5F1
:1007A000A8070CD5606DC00603D4606D40F40060EE
:1007B00060652046FFF764FD216802200860DFF8CD
:1007C0002CA2DFF82C82700701D5680703D430070C
:1007D00037D5280735D5606DC00603D4606D40F469
:1007E00000706065206801F029FE20B32068504544
:1007F00001D1424600E00246824208D03FB1052FB7
:1008000005D0092F03D0504503D1414602E0C1680D
:1008100001E00146C96889040DD4016809070AD5B9
:1008200001F004FE58B3606D40F010006065A06DEB
:1008300040F00100A0652046FFF79FFF21680C20D3
:100840000860B00601D5A80603D4700658D568061E
:1008500056D5606DC00603D4606D40F400506065ED
:100860002068C16C11F0C00F1AD00021894601F038
:10087000E5FD02462068504514D1434613E0206848
:10088000416821F00C014160606D20F4807060656A
:10089000606DC004CFD4606D40F001006065CAE7B0
:1008A0000121E3E70346834208D03FB1062F05D07C
:1008B000072F03D0504503D1414602E0C16801E053
:1008C0000146C968B9F1000F04D18B0112D48AB175
:1008D0008A040FD4026852060CD589020AD401F0AA
:1008E000A1FDE8B3606D40F010006065A06D40F0C0
:1008F0000100A0652046FFF7C4FC21686020086065
:1009000030060BD5280609D5606D40F4803060654F
:10091000204600F05BF9216880200860F0050CD5C6
:10092000E8050AD5606D40F4003060652046FFF7A9
:10093000AAFC21684FF480700860B0050CD5A805AA
:100940000AD5606D40F4802060652046FFF79CFC6E
:1009500021684FF400700860F0062ED5E80600E02C
:1009600008E02AD5606BD0B1AFB1DBF8080000F425
:10097000604013E02068416821F060014160606DD3
:1009800020F480506065606DC005B3D4606D40F0A8
:1009900001006065AEE72068C068C00750B1606DB7
:1009A00040F480606065A06D40F00200A0652046C4
:1009B000FFF7E4FE216810200860700512D5680575
:1009C00010D5606D40F480406065A06D40F0080077
:1009D000A06521684FF480600860204600F00AB8E6
:1009E000FFF750BC00F00BB80003045000010450A6
:1009F0000000045030BCBDE8C05FFFF7F1BF30BC61
:100A0000BDE8C09FF8B54FF0000504002E460095E4
:100A100002D0606D10B107E00120F8BD204600F063
:100A2000D7F8A66584F8506020688168C1F34071EA
:100A300019B181685B4A1140816020688168C1F307
:100A4000007179B98168584A114041F08051816044
:100A5000564857490068B0FBF1F000E0401E009096
:100A60000028FBD120688168C1F3007141B9616D34
:100A700041F010016165A16D41F00101A165012501
:100A800001F0D4FC616DC90600D430B1606D40F056
:100A90001000606501252846F8BD606D20F4807067
:100AA00040F0020060652068806810F0010F15D1E9
:100AB00040488068404900F00100896801F0010168
:100AC00008433E49896801F00101084306D13C49C9
:100AD00060688A6822F47C1202438A60E168606B75
:100AE000627E0843A16841EA4231084394F820102D
:100AF00040EA0140012904D1A18C324A02EB414174
:100B00000843A16A29B101F47071E26A014342EA23
:100B100001002268D1682C4B19400143D160206844
:100B200001F084FC0646206801F07CFC304315D1BE
:100B3000207E94F830102268800340EA4101D0689A
:100B400044F2020398430843D06094F83800012827
:100B50000CD02068016921F00101016120690128A0
:100B60002068016B21F00F0111D013E0D4E90F01CF
:100B70000843D4E911121143084321680A6940F27D
:100B8000FC739A43104340F001000861E6E7E26914
:100B9000521E11430163606D20F0020040F001001D
:100BA000606578E7C0FFFF5FC0FFFF7F1000002097
:100BB000400D0300000004500001045000020450E6
:100BC000000304500000FEFF07C0F0FF7047000064
:100BD00010B586B0044614216846FFF7F8FA1549A7
:100BE0002068884223D11448C16C41F40051C1648B
:100BF000C16C01F400510591C16C41F00101C16467
:100C0000C06C694600F001000590022000900B20A6
:100C10000190002002904FF0904000F017F9002260
:100C20001146122000F0B4FA122000F0A3FA06B028
:100C300010BD000000000450001002402DE9F041FA
:100C4000044639480F46816801F01F05616908298B
:100C50000FD085B1052D0ED0092D0CD0806800F481
:100C6000604060B1606D40F0200060650120BDE82B
:100C7000F081082604E02068C068C007F1E7042678
:100C800000F01CFA804608E0781C06D000F016FA46
:100C9000A0EB0800B8420FD877B120680068304256
:100CA000F2D0606D40F400706065206801F0C6FB12
:100CB000D0B1607E48B117E0606D40F0040060651F
:100CC000002084F850000320D1E720680068000766
:100CD0000AD5606D20F480706065606DC00403D437
:100CE000606D40F001006065104A20681049904234
:100CF00001D10B4600E00346834210D07DB1052DA3
:100D00000DD0092D0BD0904200D00146C968082EA5
:100D100007D0490401D40C2101600020A7E7C16875
:100D2000F5E70821F8E70000000304500001045033
:100D3000000004502DE9F04104463748806800F077
:100D40001F05206801F072FB18B102210846BDE8BA
:100D5000F08194F8500001280CD0012084F8500054
:100D60002046FFF757FA01004FF0000304D084F843
:100D70005030EBE70220EAE7606D40F601629043F5
:100D800040F480706065254A2068254E904201D16C
:100D9000374600E00746874200D01DB9676D27F44B
:100DA00080176765676DFF0404D5A76D27F00607F8
:100DB000A76500E0A3651C27076084F85030206811
:100DC000904201D1334600E00346834215D0A5B1DD
:100DD000052D12D0092D10D0636D43F48013636587
:100DE000904200D13046C0688001AFD5606D20F4DC
:100DF000005040F480506065A8E7C268920105D5B4
:100E0000626D22F4005242F4805262658268054BA2
:100E10001A40121D826099E700030450000104503B
:100E200000000450C0FFFF7F70B5044600F046F993
:100E30000546601C02D004484068044400F03EF9B6
:100E4000401BA042FAD370BD040000202DE9F04FF2
:100E5000DFF83492002309F1040A012403250AF182
:100E6000040B87B00F270BF1040E04E104FA03F61C
:100E700032407CD0D1F804C0BCF1010F08D0BCF1E5
:100E8000020F05D0BCF1110F02D0BCF1120F29D115
:100E9000D0F808C0CDF800C04FEA430C05FA0CF8B2
:100EA000CDF80CC0DDF800C02CEA080CCDF800C06D
:100EB000D1F80C80DDF80CC008FA0CF8DDF800C0A1
:100EC00048EA0C08C0F80880D0F8048091F804C003
:100ED00028EA0608CCF3001C0CFA03FC4CEA080CC8
:100EE000C0F804C0D1F804806FEA080C5FEA8C7C7B
:100EF00009D1D0F82CC02CEA060CC8F3C0069E40DD
:100F000046EA0C06C662D0F80CC04FEA430805FA60
:100F100008F62CEA060CCDF8148002968E6806FAC4
:100F200008F646EA0C06C6604E68022E01D0122E64
:100F300015D1DE0800EB86060396366A4FEA437C3D
:100F40004FEADC6807FA08FC26EA0C06D1F810C064
:100F50000CFA08FC4CEA060C039EC6F820C0066892
:100F6000DDF808C026EA0C0691F804C000E081E034
:100F7000DDF814800CF0030C0CFA08FC4CEA060CAB
:100F8000C0F800C04E68F60074D5404ED6F860C078
:100F90004CF0010CC6F860C0366E23F0030C06F06E
:100FA000010600963A4E66440296D6F808C09E079F
:100FB0004FEA167807FA08F62CEA060CB0F1904FC3
:100FC00004D0344EB04203D101261BE0002619E0C4
:100FD000314EB04201D1022614E0304EB04201D170
:100FE00003260FE02E4EB04201D104260AE02D4E1A
:100FF000B04201D1052605E02B4EB04201D10626B4
:1010000000E0072606FA08F646EA0C06DDF808C0F6
:10101000CCF80860D9F80060CC46D1F8048096433B
:101020005FEAC83800D51643CCF80060DAF80060F3
:10103000D446D1F8048096435FEA883800D5164339
:10104000CCF80060DBF80060DC46D1F80480964301
:101050005FEAC82800D51643CCF80060DEF80060CF
:10106000F446D1F8048096435FEA882800D51643F9
:10107000CCF800605B1C0A6832FA03F67FF4F6AE27
:1010800007B000F013B80000000401400010024057
:10109000000001400004004800080048000C00481F
:1010A00000100048001400480018004830BCBDE89B
:1010B000C08F0AB1816170478162704701488068C2
:1010C0007047000004000020024881684268114413
:1010D0008160704704000020094810B501680024B1
:1010E00041F480710160032000F072F8002000F0EC
:1010F00009F808B1012401E000F026F8204610BDEF
:101100000020024070B50E4E05460024706898B16C
:101110004FF47A71B1FBF0F00A490968B1FBF0F0C5
:1011200000F03EFF40B9102D06D200222946501E85
:1011300000F02EF8356000E00124204670BD00006C
:101140000400002010000020094808B5016E41F09D
:1011500001010166016E01F001010091816D41F014
:1011600080518165806D00F08050009008BD0000C6
:1011700000100240002809DB00F01F02012191400D
:101180004009800000F1E020C0F800117047000025
:10119000F0B40E4B1B680C46C3F30223C3F10705E2
:1011A000042D00D90425191D072901D2002300E0D0
:1011B000DB1E012606FA05F1491E214099409E409A
:1011C000761E16403143F0BC01F08FBC0CED00E000
:1011D000064900F0070208684FF6FF03184040EA8E
:1011E0000220034A10430860704700000CED00E045
:1011F0000000FA051649B0F5007F0868C0F34120E9
:1012000009D0022805D0086820F4C06040F480604E
:101210000860002070470128FBD0086820F4C060F7
:1012200040F4007008600B483222006850430A4ABC
:10123000B0FBF2F0401C00E0401E4A69520501D5A7
:101240000028F9D148694005E3D503207047000024
:10125000007000401000002040420F00024800686B
:1012600000F4C06070470000007000402DE9F84FA6
:10127000044600270088E54D3E46010504F1200B99
:101280001DD5606E78B1B0F5800F11D0B0F5000FAC
:1012900004D0B0F5400F22D001270FE0E86840F4F9
:1012A0008030E8601BE00021201D01F091F903E08F
:1012B0000021584601F022FA070010D03E4620884F
:1012C000C00426D5A06EC0B1B0F1807F1AD0B0F1B5
:1012D000007F0DD0B0F1407F19D0012718E0D5F87C
:1012E0008800616E20F440000843C5F88800E6E7F6
:1012F000E86840F48030E86009E00021201D01F03A
:1013000067F903E00021584601F0F8F90746F7B104
:101310003E46206880033AD5A86D4FF00008C00013
:1013200009D4A86D40F08050A865A86D4FF0010861
:1013300000F080500090DFF8D8A2DAF8001041F4F5
:101340008071CAF80010FFF7B9FE814610E0D5F8A9
:101350008800A16E20F040700843C5F88800D8E7E7
:10136000FFF7ACFEA0EB0900022801D9032705E036
:10137000DAF80000C005F3D5002F7CD04FEA07064D
:10138000B8F1000F03D0A86D20F08050A865207838
:10139000C00707D0D5F88800A16B20F003000843F0
:1013A000C5F888002078800707D5D5F88800E16B5C
:1013B00020F00C000843C5F888002078400707D5C6
:1013C000D5F88800216C20F030000843C5F888006B
:1013D0002078000707D5D5F88800616C20F0C000A0
:1013E0000843C5F888002078C00607D5D5F88800DE
:1013F000A16C20F440700843C5F88800207880066E
:1014000007D5D5F88800E16C20F440600843C5F8A2
:1014100088002088800507D5D5F88800E16D20F484
:1014200040200843C5F888002088400507D5D5F836
:101430008800216E20F440100843C5F88800207809
:10144000400607D5D5F88800216D20F440500843A8
:10145000C5F888002078000607D5D5F88800616DAA
:1014600020F440400843C5F888002088C00509D50D
:10147000D5F8880000E01CE0A16D20F4403008435E
:10148000C5F8880020884FF0006780044FF080681E
:101490004FD5D5F88800E16E20F040600843C5F8CC
:1014A0008800E06EB8423CD1E86840F48010E86003
:1014B0003FE0D5F8900010F4407015D0D4F88410B7
:1014C000814211D0D5F89000D5F8901020F44070EA
:1014D00041F48031C5F89010D5F8901021F4803196
:1014E000C5F89010C5F89000C00710D0FFF7E6FDD2
:1014F000074641F2883906E0FFF7E0FDC11B494588
:1015000001D903263CE7D5F890008007F4D5D5F83B
:101510009000D4F8841020F440700843C5F890007F
:101520002EE7404505D10121201D01F051F800B101
:1015300006462068000317D5D5F88800216F20F0F3
:1015400040600843C5F88800206FB84204D1E868BD
:1015500040F48010E86007E0404505D10121201DDE
:1015600001F036F800B106462068400317D5D5F8DB
:101570008800616F20F040600843C5F88800606F04
:10158000B84204D1E86840F48010E86007E04045C4
:1015900005D10121201D01F01BF800B1064620886D
:1015A00040041AD5D5F88800A16F20F040500843B8
:1015B000C5F88800A06FB0F1805F03D0B0F1005F84
:1015C00005D00AE00221201D01F002F803E002210B
:1015D000584601F093F800B106462088000407D56C
:1015E000D5F88800E16F20F080400843C5F88800F6
:1015F0002068C00307D555F8880FD4F8801020F074
:10160000004008432860304600F004B80010024053
:101610000070004018BCBDE8E08F00002DE9F047E5
:101620000F46050058D0404E306800F00700B84221
:1016300009D2306820F0070038433060306800F08D
:101640000700B84248D12878384CC0072CD06868C9
:10165000032811D0022812D0216898B14905002929
:101660003ADAA16821F003010143A160FFF726FDEA
:10167000804641F2883910E021688901EFE721684E
:101680008903ECE78907EAE7FFF718FDA0EB0801FB
:10169000494502D90320BDE8F087A068696800F0D9
:1016A0000C00B0EB810FEFD12878800705D5A0683A
:1016B000A96820F0F0000843A060306800F007003F
:1016C000B8420BD9306820F00700384330603068EA
:1016D00000F00700B84201D00120DCE7287840077D
:1016E00005D5A068E96820F4E0600843A060287888
:1016F000000706D5A068296920F4605040EAC100BF
:10170000A06000F01BF8A168094AC1F30311515C05
:1017100001F01F01C8400749086007480068BDE89C
:10172000F047FFF7EFBC000000200240001002402D
:10173000502D0008100000200400002070B525493D
:10174000002318468A68CC6812F00C0204F00306E5
:10175000214C4FEA640509D00C2A05D0042A32D066
:10176000082A00D1284670BD012E10D10B681B0736
:1017700004D4D1F89430C3F3032302E00B68C3F31D
:101780000313164E56F82330DAB10C2AEBD1C86891
:1017900000F00300022818D0032818D01846CA68A1
:1017A000CB68C2F30212C3F306234343521CB3FBBC
:1017B000F2F2C868C0F34160401C4000B2FBF0F098
:1017C00070BD184670BD204670BD2046E7E728462C
:1017D000E5E70000001002400024F400602D00083E
:1017E0002DE9F84304006FD0FE4DA86800F00C0608
:1017F000E86800F003072078C00664D576B10C2EA7
:1018000001D1012F0AD0A069002828687AD040F0C1
:1018100001002860FFF752FC80465DE028688007E1
:1018200002D5A0690028DED0216A2868000703D508
:10183000286800F0F00004E0D5F89400F02202EAF5
:101840001010814216D9084600F0DCFF00283BD179
:10185000286840F0080028602868216A20F0F0001D
:10186000084328606868E16920F47F4040EA01206D
:10187000686016E0286840F0080028602868216A3F
:1018800020F0F000084328606868E16920F47F4098
:1018900040EA0120686026B9206A00F0B3FF002802
:1018A000D5D1FFF74BFFA968CF4AC1F30311515CB3
:1018B00001F01F01C840CD490860CD480068FFF71E
:1018C00021FC00287ED12EE0CAE000BFFFF7F6FB26
:1018D000A0EB0800022876D828688007F6D528688B
:1018E00040F0080028602868216A20F0F0000843D2
:1018F00028606868E16920F47F4040EA0120686060
:1019000011E0FFE720F001002860FFF7D7FB8046D9
:1019100006E000BFFFF7D2FBA0EB08000228DAD8F0
:1019200028688007F6D42078C00740D0082E18D049
:101930000C2E01D1032F14D06068B0F5803F17D072
:10194000B0F5A02F286817D020F4803028602868D0
:1019500020F4802028606068E0B1FFF7AFFB80468C
:1019600014E02868800322D56068002878D01EE043
:10197000286840F48030EDE740F480202860F7E7E5
:10198000FFF79CFBA0EB08006428A4D8286880031C
:10199000F6D50CE0FFF792FB804605E0FFF78EFBE3
:1019A000A0EB0800642896D828688003F6D4207835
:1019B00080073BD5042E11D00C2E01D1022F0DD063
:1019C000E06801E092E1F1E0002828681ED040F4D0
:1019D00080702860FFF772FB07460CE0286840051E
:1019E0000CD5E0680028C1D008E000BFFFF766FB17
:1019F000C01B022893D828684005F7D56868217C69
:101A000020F0F85040EA016068600FE020F4807038
:101A10002860FFF753FB074605E000BFFFF74EFBCA
:101A2000C01B0228B1D828684005F7D420780007E9
:101A300029D560690028D5F8940012D040F0010043
:101A4000C5F89400FFF73AFB074604E0FFF736FBC2
:101A5000C01B022899D8D5F894008007F6D512E06B
:101A600000E120F00100C5F89400FFF727FB0746CE
:101A700005E000BFFFF722FBC01B022885D8D5F880
:101A800094008007F6D42078400766D5A86D00271B
:101A9000C00008D4A86D40F08050A865A86D01274B
:101AA00000F08050009053480168C90512D40168C5
:101AB000814641F480710160FFF700FB804605E03C
:101AC000FFF7FCFAA0EB080002286FD8D9F8000055
:101AD000C005F5D5A068012816D00528D5F89000D6
:101AE00017D020F00100C5F89000D5F8900020F044
:101AF000040000BFC5F89000A06841F28839C0B169
:101B0000FFF7DCFA80460FE0D5F8900040F00100C6
:101B1000F0E740F00400C5F89000F5E7FFF7CEFAD3
:101B2000A0EB0801494541D8D5F890008007F5D5CC
:101B30000EE0FFF7C3FA804606E000BFFFF7BEFAEB
:101B4000A0EB0801494531D8D5F890008007F5D4BD
:101B50001FB1A86D20F08050A865A06A38B3022894
:101B60000AD00C2E7ED0286820F08070286028686B
:101B700010F0205F77D0AAE0E868E26A00F0030185
:101B800091422BD1216B00F0700209011039914272
:101B900024D1626B00F4FE41B1EB022F1ED1A26B87
:101BA00000F40031072A03D0012202E09DE089E021
:101BB0000022914212D1A18F00F4C00249084905C8
:101BC000A1F50011914209D194F8401000F0C060D5
:101BD00049084906A1F1007181425CD00C2E41D028
:101BE000286809E000100240502D00081000002075
:101BF000040000200070004040017ED42868C0002E
:101C00007BD4286820F080702860FFF757FA0646DA
:101C100005E000BFFFF752FA801B022865D828684C
:101C20008001F7D4D4E90B016FF00F0202EB011130
:101C30000843A18F5204490802EB4151626B41EA0B
:101C40000221084394F840104FF07E42490802EB0D
:101C500041610843A16B090940EA4140E968284A0B
:101C6000114001E049E02EE00843E860286840F0B8
:101C700080702860E86840F08070E860FFF71EFA26
:101C8000044604E0FFF71AFA001B02282DD8286842
:101C90008001F7D52FE0286880012CD4286840F017
:101CA00080702860E86840F08070E860FFF706FA0E
:101CB000044604E0FFF702FA001B022815D8286842
:101CC0008001F7D517E0E86820F00300E860E868D5
:101CD0000C490840E860FFF7F1F9044608E000BF4E
:101CE000FFF7ECF9001B022802D90320BDE8F883B6
:101CF00028688001F4D40020F8E70120F6E700000E
:101D00008C809DF9FFFFEEFE2DE9F041040005D027
:101D10000025A56294F85D0018B107E00120BDE838
:101D2000F08184F85C50204600F044F8022384F8E7
:101D30005D302068016821F040010160E0684FF4E7
:101D4000E066B04201D9002101E04FF48051B0F5C6
:101D5000706F02D0B04200D0A562276B012227B974
:101D6000B04201D9236300E02263D4E901031843A0
:101D7000D4E9043633431843238B03F40073184328
:101D8000E3691843236A1843A36A18432368186059
:101D9000636B606AA66918430427E36807EA16467E
:101DA00033431843084321684860256684F85D2062
:101DB0000020B4E710B586B0044614216846FEF74B
:101DC00006FA1349206888421FD11248016E41F477
:101DD00080510166016E01F480510591C16C41F0A2
:101DE0001001C164C06C694600F0100005904FF40A
:101DF0006040009002200190002002900320039098
:101E0000052004900448FFF721F806B010BD00003B
:101E10000030014000100240001000482DE9F84F4A
:101E2000044690F85C0000271D46164689460128A6
:101E30000DD04FF0010B84F85CB0FFF73FF98046FE
:101E400094F85D00BA46012804D002279FE00220E2
:101E500000F0A3B8B9F1000F6FD0002E6DD00320B1
:101E600084F85D00C4F860A0C4F83890A687E687BF
:101E7000C4F840A0A4F844A0A4F846A0C4F850A018
:101E8000C4F84CA0A068B0F5004F04D120680168E8
:101E900041F48041016020680168490603D401686B
:101EA00041F040010160E068B0F5E06F606823D95F
:101EB00008B1012E1CD1A06B21680088C86006E023
:101EC00020688168890709D5A16B0988C160A06B6A
:101ED000801CA063E08F401EE08709E0FFF7EEF86A
:101EE000A0EB0800A84202D3681C01D046E0ADB3C5
:101EF000E08F0028E4D136E008B1012E30D1E08F28
:101F00000128A06B03D921680088C8600FE0216810
:101F10000078087314E0E08722E020688168890770
:101F200014D5E18F0129A16B08D90988C160A06B84
:101F3000801CA063E08F801EEDE727E00978017325
:101F4000A06B401CA063E08F401EE4E7FFF7B6F8EB
:101F5000A0EB0800A84202D3681C01D00EE06DB1CE
:101F6000E08F0028D9D142462946204600F088FC5F
:101F700008B120202066A06810B105E0032706E024
:101F80002068C16880680090206E00B1012784F845
:101F90005DB084F85CA038465AE718BCBDE8E08F15
:101FA00010B5401EB0F1807F01D3012010BD4FF06D
:101FB000E02460610F21601700F097FD0020A06110
:101FC00007202061002010BDFEE7000030B500248E
:101FD0004FF4A07322464FF4F07500BF30F8121092
:101FE000A14200D90C46994200D20B46521CAA428B
:101FF000F4DB30BD2DE9F0470E464FF4FA74074686
:10200000B4EB460F00D90C46DFF884900122910210
:102010004D464846FFF74DF84FF4006A00225146FE
:102020002846FFF746F84FEA1728204600F022FE20
:1020300005460020F9B204E005F800802A18801C4B
:102040005170A042F8D37000B0FBF4F1B0FBF4F78C
:1020500004FB110857B1002606E0A2B20A23294664
:102060000C48FFF7DBFE761CBE42F6D31FFA88F25F
:102070000A2329460748FFF7D1FE01225146484668
:10208000FFF717F82846BDE8F04700F04DBD000007
:1020900000100048800000202DE9F04110244FF48A
:1020A00090784CF218654FF4F076A0B22B46424679
:1020B000002100F091F92034B442F6DD00244FF401
:1020C000A077A1B22B463246002000F02FF8203432
:1020D000BC42F6DD4FF4FC64234642460021F0206A
:1020E00000F07AF923463246BDE8F0410021084667
:1020F00000F01CB8012211030148FEF7DABF00000E
:102100000010004870B5084C0546002123886288FD
:10211000084600F011F96188208841432846BDE84F
:102120007040FFF767BF00000000002070B51D463B
:102130000D4B14465A88904214D21B88994211D2F2
:1021400003195B1E934201DB121A94B20219521E4C
:1021500092B20B4600F0F0F821462846BDE87040E8
:10216000FFF748BF70BD00000000002010B5FFF76A
:10217000C1FF00F0A9FB00F0C1F8012000F0CCFD88
:102180004FF47A70FEF750FEB92000F0C5FDFF2035
:1021900000F0A6FD832000F0A3FD572000F0A0FD75
:1021A000FF2000F09DFD4FF49670FEF73DFEB0203D
:1021B00000F0B2FD682000F093FDCC2000F0ACFDF3
:1021C000052000F08DFD3A2000F0A6FD552000F01E
:1021D00087FD362000F0A0FD002000F081FD3520B5
:1021E00000F09AFD002000F07BFD442000F094FDFB
:1021F000002000F075FD022000F072FD112000F0BB
:102200008BFD9620FEF710FE292000F085FDBDE82D
:1022100010403220FEF708BE2DE9FF5F1C460E98E5
:10222000154606B2331BA2EB010200D55B42002A21
:1022300000DA5242934207DD08462146044628460A
:102240004FF00108354601E04FF00008A94205DDD6
:102250000A4629461546224604B210466A1A0FFA63
:1022600082F909EBD972561002B2101B00D5404218
:102270000FFA80FB944201DA012001E04FF0FF30B9
:10228000824615E0B8F1000F02D0B9B2A0B201E069
:10229000A1B2B8B2009A00F013F8A6EB0B0006B298
:1022A000002E03DA04EB0A0004B24E467F1C39B25A
:1022B0000F46A942E6DD00F000B83FBCBDE8C09F74
:1022C00010B50D4B14465A88904213D21B88994280
:1022D00010D25B1E521E9BB292B200F02DF82C2041
:1022E00000F01AFD200A00F0FBFCE0B2BDE810404F
:1022F00000F0F6BC10BD00000000002070B50D4DD0
:102300004FF48054002221462846FEF7D2FEC82012
:10231000FEF78AFD002261102846FEF7CAFEC8209B
:10232000FEF782FD21462846BDE870400122FEF7F7
:10233000C0BE0000001000482DE9F04107461C46D1
:1023400015460E462A2000F0E7FC380A00F0C8FCCB
:10235000F8B200F0C5FC280A00F0C2FCE8B200F0B8
:10236000BFFC2B2000F0D8FC300A00F0B9FCF0B222
:1023700000F0B6FC200A00F0B3FCE0B200F0B0FCC4
:10238000BDE8F0412C2000F0C7BC00002DE9F04171
:102390000746362000F0C0FC0E4C4FF4A0764FF4F8
:1023A000F0756FB1012F0DD0022F0DD0032F05D185
:1023B0005FF0E80000F094FC65802680BDE8F081C5
:1023C000482002E02820F5E7882000F089FC66809C
:1023D0002580F3E70000002070B514460D4A1D4625
:1023E0005388984214D21288914211D20B195B1E65
:1023F000934201DB521A94B20A19521E93B202465A
:10240000FFF79AFF21462846BDE87040FFF7F2BD6E
:1024100070BD00000000002000EB8100006E00F0A5
:10242000F84070478068C0F3C00070478068C0F310
:10243000800070478068C0F380007047C06810F467
:10244000406F01D00020704701207047042303EA49
:10245000D15310B518444369C1F3045107248C408B
:10246000A3438A401343436110BD00EB8100016E1A
:1024700021F00041114301667047000010B58AB099
:10248000002406940794182168460894FDF79FFEDF
:102490001948184901604FF48011C0E9011408215E
:1024A000C460C0E90441047601214176C16180F82D
:1024B0002040C0E90914C46280F830400903416338
:1024C00080F83840FEF79EFA06A90B480694FDF7FF
:1024D000DDFE0A4800900620CDE901047F2003902C
:1024E0000420CDE9040469460348FDF747FF0AB01C
:1024F00010BD0000000004501C0000204000201906
:1025000030B587B014216846FDF761FE1648C16CEE
:1025100041F08001C164C16C01F080010591C16C82
:1025200041F00101C164C16C01F001010591C16C70
:1025300041F01001C164C06C0C4D00F010004FF46C
:10254000E0540590002221462846FEF7B2FD012006
:1025500000210094CDE90101039169462846FEF768
:1025600075FC07B030BD00000010024000100048AC
:10257000124882B0016E41F480510166006E10492C
:1025800000F4805000900F484FF4E06201604FF477
:10259000827141600021C0E902124FF400720161B2
:1025A000C0E905120822C0E9072107234162C0E9FA
:1025B0000A13C0E90C1202B0FFF7A6BB00100240DC
:1025C0000030014080000020FEE7704770470000A7
:1025D0002DE9F041444C05468846E0680026810715
:1025E00028680DD0E16801F00301814216D1A8B13D
:1025F000E0686968C0F30210401C88420ED120E0F8
:10260000012804D0022805D0032807D108E021685A
:10261000890701E021684905002907DB01265FE001
:102620002168890302D421684903F5E7E1686A68F3
:102630006FF00F0321F0730103EB0212114301430A
:10264000E160206820F080602060FEF737FD0746DB
:1026500005E000BFFEF732FDC01B022837D8206816
:102660000001F7D4B8F1000F18D0B8F1010F1ED057
:10267000287D4FF07E41400801EB4060A96840EAA8
:1026800001202169194A114008432061206840F067
:1026900080602060FEF712FD07461AE0A868E9682E
:1026A0000002090940EA41402169114AEBE7288A02
:1026B0001049400801EB4050A96840EA0120216917
:1026C0000D4AE0E7FEF7FAFCC01B022801D90326F9
:1026D00006E020680001F5D52069A969084320615A
:1026E0003046BDE8F081000000100240FF80FFF995
:1026F000FF80FDFF0000E0FFFF809FFF2DE9F0411C
:102700003D4C06468846E0680025810730680DD0BC
:10271000E16801F00301814216D1A8B1E068716857
:10272000C0F30210401C88420ED120E0012804D0E2
:10273000022805D0032807D108E02168890701E0B5
:1027400021684905002907DB012551E0216889033B
:1027500002D421684903F5E7E16872686FF00F035E
:1027600021F0730103EB021211430143E160206881
:1027700020F080502060FEF7A1FC074605E000BF76
:10278000FEF79CFCC01B022829D820688000F7D4E3
:10279000B8F1000F15D0307C4FF07E41400801EBBE
:1027A0004060B16840EA01206169144A1140084361
:1027B0006061206840F080502060FEF77FFC074693
:1027C0000FE0B068F1680002090940EA4140616920
:1027D0000B4AEBE7FEF772FCC01B022801D9032568
:1027E00006E020688000F5D5606971690843606182
:1027F0002846BDE8F081000000100240FF80FFF98C
:10280000FF80FDFFF8B51C4D06460024A86DC000F2
:1028100002D5FEF723FD0DE0A86D40F08050A865BD
:10282000A86D00F080500090FEF718FDA96D21F012
:102830008051A965B0F5007F04D0802E07D94FF0F4
:1028400003040AE0802E08D9A02E01D804E001D1AB
:10285000022402E0702E00D101240848016821F012
:10286000070121430160006800F00700A04201D089
:102870000120F8BD0020F8BD0010024000200240F9
:10288000F8B515460E460B460092044600224FF45A
:10289000C05100F02BF888B9334600228021204631
:1028A000009500F06EF848B9334600224FF4C0613D
:1028B0002046009500F01AF8002804D0206E40F061
:1028C000200020660320F8BD00224FF4006101487B
:1028D000FEF7EFBB0010004801B501231A46694618
:1028E0000148FFF79BFA08BD800000202DE9F04762
:1028F0001D4617460E4604464FF4C068DDF820908A
:102900000CE0464501D107B9007B681C06D0FEF7F4
:10291000D5FBA0EB0900A84208D23DB12068816830
:102920003140B942EDD10020BDE8F0872068416810
:1029300021F0E00141606068B0F5827F0BD1A068B2
:10294000B0F5004F02D0B0F5806F04D12068016867
:1029500021F040010160A06AB0F5005F09D1206854
:10296000016821F4005101602068016841F40051C0
:102970000160012084F85D00002084F85C000320E1
:10298000D2E72DE9F0411D4617460E460446DDF814
:10299000188008E0681C06D0FEF790FBA0EB08004A
:1029A000A8420BD255B12068806836EA000030D0CA
:1029B0000020B842EED10020BDE8F08120684168D7
:1029C00021F0E00141606068B0F5827F0BD1A06822
:1029D000B0F5004F02D0B0F5806F04D120680168D7
:1029E00021F040010160A06AB0F5005F09D12068C4
:1029F000016821F4005101602068016841F4005130
:102A00000160012084F85D00002084F85C00032050
:102A1000D2E70120CDE77047FEF756BBF0B5B9B05D
:102A2000442122A8FDF7D3FB142133A8FDF7CFFBE7
:102A300088216846FDF7CBFB102001240026229058
:102A4000CDE9284602256020CDE92C542A90242087
:102A50000727CDE92E40CDE93075329522A8FEF743
:102A6000BFFE0F2033900320CDE9340636960421B3
:102A700033A83796FEF7D2FDA003009080031E9086
:102A80001820CDE9024001942006CDE90650CDE999
:102A900004756846FEF7EAFB6002FEF7ABFB39B04F
:102AA000F0BD00000D48016841F4700101600C4860
:102AB000016841F001010160002181600268094B59
:102AC0001A4002608214C260026822F4802202600E
:102AD00081610249C00380390860704788ED00E0D9
:102AE00000100240FFFFF6EAFEE70907090E002882
:102AF00004DB00F1E02080F80014704700F00F00C4
:102B000000F1E02080F8141D704702E008C8121F91
:102B100008C1002AFAD170477047002001E001C1C6
:102B2000121F002AFBD1704710B5002821D0114B8D
:102B30000022001F196803E0814203D80A46496851
:102B40000029F9D152B11368841A9C4204D100685B
:102B500018441060104602E0506000E0186039B17F
:102B600002680B1A934203D10B681A440260496849
:102B7000416010BD1400002008B5FEF7ADFAFFF764
:102B80004DFFFFF7BDFCFFF7F3FCFFF777FC4FF4B9
:102B90007A7B5846FEF748F93348FFF70BF932487D
:102BA0006438FEF7C7F8FFF7E1FA0120FFF7EEFB04
:102BB0000020FFF7A7FAFFF76FFADFF8AC804FF4B9
:102BC000EF7908F16408294F00244E46454626480F
:102BD00039466438FEF732F848B923486438FDF7BF
:102BE000CEFD00EB8000C0F38F1025F81400641CAC
:102BF000A4B2B442EBD9A8461D4D0024B1464FF60D
:102C0000E07A00BF05EB440021B2B0F90200009069
:102C1000601C02B235F9143017460E460020FFF74B
:102C2000FBFA08EB44013A46B1F90210009138F979
:102C3000143031465046FFF7EFFA641C4C45E1DD95
:102C4000FFF72AFA08486430FFF7C0F900205A4617
:102C50004FEA080131F8103025F81030401C80B2DE
:102C60009042F7D3AFE7000080000020A08601006B
:102C7000A4040020F0B50B30154D20F0070100240E
:102C8000144A0FE003688B420BD38B4205D95E1ABE
:102C900043184768C3E9006700E04368136002C057
:102CA00004E0021D10680028ECD12046002802D163
:102CB000286808B10020F0BD064A07481060074A9E
:102CC000121A22F00702C0E9002401202860D7E789
:102CD00018000020140000206C080020680A002062
:102CE00070B50C4C0646012291022046FEF7E1F930
:102CF0004FF40065002229462046FEF7DAF93046F7
:102D0000FFF7EAFD29462046BDE870400122FEF7A4
:102D1000D0B900000010004870B50C4D06464FF4C5
:102D20000064002221462846FEF7C3F90022611004
:102D30002846FEF7BEF93046FFF7CEFD214628466D
:102D4000BDE870400122FEF7B4B900000010004851
:102D5000000000000000000001020304060708094B
:102D6000A0860100400D0300801A060000350C000B
:102D700040420F0080841E0000093D0000127A00CE
:102D80000024F40000366E010048E801006CDC020B
:102D9000B02D0008000000201C0000000A2B0008D5
:102DA000CC2D00081C0000204C0E00001A2B00083F
:102DB0004001E001100000000100000000000000E0
:0C2DC00000093D000000000000000000C1
:040000050800018965
:00000001FF
