:020000040800F2
:10000000E00A00209D010008AB2E000849250008E9
:10001000A92E0008CD070008C93300080000000021
:10002000000000000000000000000000F73200089F
:10003000CF07000800000000AD2E0008F9320008CC
:10004000B7010008B7010008B7010008B7010008B0
:10005000B7010008B7010008B7010008B7010008A0
:10006000B7010008B7010008B7010008B701000890
:10007000B7010008B7010008B7010008B701000880
:10008000B7010008B7010008B7010008B701000870
:10009000B7010008B7010008B7010008B701000860
:1000A000B7010008B7010008B7010008B701000850
:1000B000B7010008B7010008B7010008B701000840
:1000C000B7010008B7010008B7010008B701000830
:1000D000B7010008B7010008B7010008B701000820
:1000E000B7010008B7010008B7010008B701000810
:1000F000B7010008B7010008B7010008B701000800
:10010000B7010008B7010008B7010008B7010008EF
:10011000B7010008B7010008B7010008B7010008DF
:10012000B7010008B7010008B7010008B7010008CF
:10013000B7010008B7010008B7010008B7010008BF
:10014000B7010008B7010008B7010008B7010008AF
:10015000B7010008B7010008B7010008B70100089F
:10016000B7010008B7010008B7010008B70100088F
:10017000B7010008B7010008B7010008000000003F
:10018000B7010008B7010008DFF80CD000F04AFA08
:1001900000480047653D0008E00A00200648804707
:1001A00006480047FEE7FEE7FEE7FEE7FEE7FEE75C
:1001B000FEE7FEE7FEE7FEE7853300088901000859
:1001C000D2B201E000F8012B491EFBD27047002299
:1001D000F6E710B513460A4604461946FFF7F0FF46
:1001E000204610BD00F0004230F000400AD0C10DA2
:1001F00001F56071C0F3160042EA0151C2084007E0
:100200001143704700200146704730B50B46014648
:1002100000202022012409E021FA02F59D4205D3A5
:1002200003FA02F5491B04FA02F52844151EA2F14F
:100230000102F1DC30BD2DE9F05F05460020924659
:100240009B4688460646814640241BE02846414698
:100250004746224600F007FA53465A46C01A9141D3
:1002600010D311461846224600F0EEF92D1A67EB1E
:1002700001084F4622460120002100F0E5F917EB66
:1002800000094E41201EA4F10104DFDC484631463E
:100290002A46434600F000B830BCBDE8C09F2DE9B7
:1002A000FE4F804681EA0300C00F0C46009021F00B
:1002B000004123F00045B8EB0200A94105D24046B9
:1002C000214690461C460B46024623F00040104350
:1002D00047D0270DC7F30A00C3F30A510290401A12
:1002E000019040286BDAC3F3130040F4801B0098A0
:1002F000924620B10023D2EB030A63EB0B0B01986B
:100300005946C0F14002504600F09EF906460D469F
:1003100050465946019A00F0B6F910EB08006141C9
:10032000002487EA115284EAE7731A4340D0009A06
:1003300062B3019A012A4FEA075215DC001B61EBF8
:1003400002014FF0004202EA0752CDE90042001CD0
:1003500041F5801132462B4600F0B6F903B000F0AB
:1003600045B840462146F9E7001B61EB0201001C3D
:1003700041F5801300185B412018A2F5001747EBE8
:10038000030140EAD570B6196D4111E06D084FEADE
:10039000360645EAC0754FEA0752001B61EB0201C1
:1003A000001C41F5801149084FEA30000019514105
:1003B00032462B4603B000F01CB800F076B9009826
:1003C000012240000023D0EB020263EBE0730098AF
:1003D00021464FEAE074B8EB000061EB0401E9E765
:1003E00083F000435BE781F0004158E730BCBDE893
:1003F000C08F30BCBDE8C04FFFF7DFBF2DE9FE4F17
:1004000081EA030404F0004421F0004100944FF01D
:10041000000B23F0004350EA01045ED052EA0304CB
:100420005BD0C3F30A54C1F30A552C44A4F2F3344D
:100430000194A0FB0254C1F3130141F48011C3F3F2
:10044000130343F4801301FB024400FB034E840AB0
:10045000970A44EA815447EA8357A4FB0768029548
:100460008D0A05FB07854FEA932C04FB0C542705E6
:10047000029D4FEA065847EA1637B5EB08056EEBC2
:10048000070C870E920E47EA811742EA8312A7FBF8
:100490000201B6EB0B0164EB00042B0D43EA0C33B5
:1004A0005E1844EB1C50DA465146E7FB0201C5F3E7
:1004B00013044FEA0B3343EA14534FEA0432019C0E
:1004C00043EA0603A4F10C040294009CCDE900B4B5
:1004D00000F0FAF803B000F003B800200146F9E795
:1004E00030BCBDE8C08F2DE9F04D81EA030404F073
:1004F000004B21F0004514464FF0000A23F0004164
:1005000050EA050220D054EA01021DD0C5F30A5773
:100510000246C5F31303C1F31300C1F30A5640F4B6
:10052000801543F48013A7EB0608101BD64608F28B
:10053000FD3873EB050002D308F1010801E09218C1
:100540005B41B8F1000F03DA00200146BDE8F08DF1
:1005500000204FF48011064684460EE0171B73EB13
:10056000050705D3121B63EB050306434CEA010C98
:1005700049084FEA300092185B4150EA0107EDD17B
:1005800052EA030012D082EA040083EA050108431C
:1005900005D0101BAB4106D20122002306E0002249
:1005A0004FF0004302E06FF0010253101AEB060017
:1005B0004CEB085110EB0A0041EB0B01BDE8F04D8C
:1005C00000F073B8C1F30A52C1F3130140F2FF33D4
:1005D00041F480119A4202DA00200146704740F24D
:1005E00033439A42A2F2334202DC524200F03BB85B
:1005F00000F02AB830B5041E71F1000404DB4FF09E
:100600000044404264EB0101141E73F1000405DB59
:100610001C464FF00043524263EB0403994208BF6B
:10062000904230BD064C074D06E0E06840F0010303
:1006300094E8070098471034AC42F6D3FFF7A8FDC2
:1006400094490008B4490008202A04DB203A00FA43
:1006500002F1002070479140C2F1200320FA03F319
:10066000194390407047202A04DB203A21FA02F017
:100670000021704721FA02F3D040C2F120029140DC
:10068000084319467047202A06DBCB17203A41FA67
:1006900002F043EAE07306E041FA02F3D040C2F10F
:1006A0002002914008431946704710B5141E73F19B
:1006B000000408DA401C41F1000192185B411A4322
:1006C00001D120F0010010BD2DE9F04D92469B466E
:1006D00011B1B1FA81F202E0B0FA80F22032904614
:1006E000FFF7B2FF04460F4640EA0A0041EA0B0159
:1006F00053465A46084313D0114653EA010019D015
:10070000C8F140025046FFF7AEFF05460E46504680
:1007100059464246FFF798FF084305D0012004E000
:1007200020463946BDE8F08D0020054346EAE076D4
:100730002C4337430A986305E40AA0EB0800002223
:10074000FD0A44EA47540A3002D500200146E9E791
:10075000010510196941DDE9084500196941BDE845
:10076000F04DA2E770B504460068816811F0010FF2
:1007700028D18168144A114215D18168D543294096
:10078000491C816000F0F6FD064616E0816811F014
:10079000010F03D181682940491C816000F0EAFD06
:1007A000801B022809D9606D40F010006065A06DC3
:1007B00040F00100A065012070BD20680168C943B8
:1007C000C907E3D1002070BD3F000080FEE77047FD
:1007D0002DE9F047044690F850009AB00D464FF0CE
:1007E0000008012813D0012084F85000304E206802
:1007F0004FF00009B0420ED12E4F0097384602F05C
:1008000077FA8246206802F073FA60B10EE00220A7
:100810001AB0BDE8F087616D41F02001616584F890
:1008200050900120F4E7BAF1000F09D0606D40F05C
:10083000200060654FF0010884F850904046E7E7DB
:100840001D4829681D4A0029816840F61F7321F45C
:1008500060411BD094F830C041EA4C31D5F804C057
:1008600041EA0C018160B168BE6801F0010106F047
:1008700001069268314302F001021143DCD1AA68FB
:100880002968114382689A4311430EE08160B16880
:10089000BD6801F0010105F001059268294302F0ED
:1008A00001021143C8D1816899438160C4E7000007
:1008B00000000450000104500003045000020450E2
:1008C0002DE9F84F00270446009790F85000DFF814
:1008D000B8930D46B846012811D0012684F850601F
:1008E000206802F001FA60B1606D40F020006065A0
:1008F0005FF0010784F85080384600F0DDB902202F
:10090000FBE768680C23052812D8022807D00328C3
:1009100007D0042807D0052807D0062007E06B6021
:1009200006E0122003E0182001E04FF480706860B8
:10093000D5E90021206803EA91131844036B01F004
:100940001F014FF01F0C0CFA01FCC2F3846223EA72
:100950000C038A4013430363206802F0C5F9824602
:10096000206802F0BDF95AEA00001DD1AA68296882
:10097000206802F0C9F920686969C268C2F3C1023F
:10098000520091402A69042A0FD000EB82002B68A4
:10099000026EDFF8F8C203F0F84302EA0C020B43E0
:1009A0001A4342F00041016672E0002102F092F920
:1009B000400320684FF0000172D002F08BF990FAEA
:1009C000A0F0B0FA80F1286842036ED090FAA0F04F
:1009D000B0FA80F0814204D100221146206802F072
:1009E000A2F90121206802F075F9400320684FF058
:1009F00001015DD002F06EF990FAA0F0B0FA80F13A
:100A00002868420359D090FAA0F0B0FA80F08142F1
:100A100004D100220121206802F085F9022120681A
:100A200002F058F9400320684FF0020148D002F06C
:100A300051F990FAA0F0B0FA80F12868420344D04E
:100A400090FAA0F0B0FA80F0814204D10022022195
:100A5000206802F068F90321206802F03BF94003A6
:100A600020684FF0030133D002F034F990FAA0F07F
:100A7000B0FA80F1286842032FD090FAA0F0B0FAC3
:100A800080F0814204D100220321206802F04BF95A
:100A90002068816811F0010F22D0ACE000E004E092
:100AA00002F018F9C0F384618DE7C0F3846091E728
:100AB00002F010F9C0F38461A2E7C0F38460A6E7F6
:100AC00002F008F9C0F38461B7E7C0F38460BBE7C4
:100AD00002F000F9C0F38461CCE7C0F38460D0E792
:100AE0002A7B296850F8B03FC1F3120C23EA0C03AB
:100AF00002F0180C664A22FA0CF20A401343036013
:100B0000E968494577D1286841031CD090FAA0F1E3
:100B1000B1FA81F1491C01F01F0109294FEA403166
:100B200032D8002912D000BF90FAA0F1B1FA81F1B9
:100B300001F1010101F01F0106FA01F609D100BF20
:100B4000C0F3846109E0C0F38461E3E7C0F384612A
:100B5000EEE790FAA0F1B1FA81F101F1010101F0A3
:100B60001F0146EA816102D1C0F3846003E090FA7C
:100B7000A0F0B0FA80F000F1010000F01F0000EBDF
:100B8000400041EA005132E000290ED090FAA0F175
:100B9000B1FA81F101F1010101F01F0106FA01F63C
:100BA00006D100BFC0F3846106E0C0F38461F1E7C1
:100BB00090FAA0F1B1FA81F101F1010101F01F01F8
:100BC00046EA816102D1C0F3846003E090FAA0F0AC
:100BD000B0FA80F000F1010000F01F002D4A00EB98
:100BE000400002EB005041EA000141F00071AA68A8
:100BF000206802F089F828482A6802423FF47AAE59
:100C000026488168264E274B274D01F0E071B242FD
:100C10001CD10E021AD422689A4202D0AA427FF452
:100C200069AE826841F4000122F0E0720A438260FA
:100C30001E481F490068B0FBF1F000EB4000800047
:100C400000E0401E00900028FBD153E6194EB2424E
:100C500009D1CE0107D422689A4201D0AA42F4D128
:100C600041F080710AE06FF00045EA42EDD14A029E
:100C7000EBD422689A42E8D141F48001826822F0E4
:100C8000E0720A43826035E600007F4000F0FF0317
:100C9000FFFF0700000020FE000008800003045052
:100CA000000052C700000450000204501800002049
:100CB000400D0300000084CB18BCBDE8E08F006845
:100CC000006C7047F8B54FF0000504002E46009503
:100CD00002D0606D10B107E00120F8BD204600F0A1
:100CE000D5F8A66584F8506020688168C1F340712A
:100CF00019B181685B4A1140816020688168C1F345
:100D0000007179B98168584A114041F08051816081
:100D1000564857490068B0FBF1F000E0401E0090D3
:100D20000028FBD120688168C1F3007141B9616D71
:100D300041F010016165A16D41F00101A16501253E
:100D400001F0D2FF616DC90600D430B1606D40F092
:100D50001000606501252846F8BD606D20F48070A4
:100D600040F0020060652068806810F0010F15D126
:100D700040488068404900F00100896801F00101A5
:100D800008433E49896801F00101084306D13C4906
:100D900060688A6822F47C1202438A60E168606BB2
:100DA000627E0843A16841EA4231084394F820106A
:100DB00040EA0140012904D1A18C324A02EB4141B1
:100DC0000843A16A29B101F47071E26A014342EA61
:100DD00001002268D1682C4B19400143D160206882
:100DE00001F082FF0646206801F07AFF304315D1FA
:100DF000207E94F830102268800340EA4101D068D8
:100E000044F2020398430843D06094F83800012864
:100E10000CD02068016921F00101016120690128DD
:100E20002068016B21F00F0111D013E0D4E90F010C
:100E30000843D4E911121143084321680A6940F2BA
:100E4000FC739A43104340F001000861E6E7E26951
:100E5000521E11430163606D20F0020040F001005A
:100E6000606578E7C0FFFF5FC0FFFF7F18000020CC
:100E7000400D030000000450000104500002045023
:100E8000000304500000FEFF07C0F0FF10B586B05D
:100E9000044614216846FFF79AF9114920688842F0
:100EA0001BD11048C16C41F40051C164C16C01F404
:100EB00000510591C16C41F00101C164C06C6946EB
:100EC00000F001000590022000900B20019000200E
:100ED00002904FF0904000F00FF906B010BD0000F6
:100EE00000000450001002402DE9F041044639484A
:100EF0000F46816801F01F05616908290FD085B18F
:100F0000052D0ED0092D0CD0806800F4604060B132
:100F1000606D40F0200060650120BDE8F08108268A
:100F200004E02068C068C007F1E7042600F022FA58
:100F3000804608E0781C06D000F01CFAA0EB080000
:100F4000B8420FD877B1206800683042F2D0606DA7
:100F500040F400706065206801F0CEFED0B1607E84
:100F600048B117E0606D40F004006065002084F82F
:100F700050000320D1E72068006800070AD5606DA3
:100F800020F480706065606DC00403D4606D40F033
:100F900001006065104A20681049904201D10B465B
:100FA00000E00346834210D07DB1052D0DD0092D00
:100FB0000BD0904200D00146C968082E07D04904E2
:100FC00001D40C2101600020A7E7C168F5E70821E2
:100FD000F8E7000000030450000104500000045032
:100FE0002DE9F04104463748806800F01F0520686D
:100FF00001F07AFE18B102210846BDE8F08194F8AC
:10100000500001280CD0012084F850002046FFF742
:10101000A9FB01004FF0000304D084F85030EBE747
:101020000220EAE7606D40F60162904340F4807070
:101030006065254A2068254E904201D1374600E080
:101040000746874200D01DB9676D27F48017676592
:10105000676DFF0404D5A76D27F00607A76500E0BC
:10106000A3651C27076084F850302068904201D1A6
:10107000334600E00346834215D0A5B1052D12D0BA
:10108000092D10D0636D43F480136365904200D145
:101090003046C0688001AFD5606D20F4005040F448
:1010A00080506065A8E7C268920105D5626D22F4A0
:1010B000005242F4805262658268054B1A40121D4C
:1010C000826099E7000304500001045000000450BE
:1010D000C0FFFF7F70B5044600F04CF90546601C68
:1010E00002D004484068044400F044F9401BA04288
:1010F000FAD370BD0C0000202DE9F04FDFF83492D8
:10110000002309F1040A012403250AF1040B87B026
:101110000F270BF1040E04E104FA03F632407CD0F1
:10112000D1F804C0BCF1010F08D0BCF1020F05D00A
:10113000BCF1110F02D0BCF1120F29D1D0F808C0B8
:10114000CDF800C04FEA430C05FA0CF8CDF80CC0FE
:10115000DDF800C02CEA080CCDF800C0D1F80C80F6
:10116000DDF80CC008FA0CF8DDF800C048EA0C08FD
:10117000C0F80880D0F8048091F804C028EA060876
:10118000CCF3001C0CFA03FC4CEA080CC0F804C0B9
:10119000D1F804806FEA080C5FEA8C7C09D1D0F8A2
:1011A0002CC02CEA060CC8F3C0069E4046EA0C068A
:1011B000C662D0F80CC04FEA430805FA08F62CEADC
:1011C000060CCDF8148002968E6806FA08F646EAF8
:1011D0000C06C6604E68022E01D0122E15D1DE0814
:1011E00000EB86060396366A4FEA437C4FEADC68DA
:1011F00007FA08FC26EA0C06D1F810C00CFA08FC25
:101200004CEA060C039EC6F820C00668DDF808C04C
:1012100026EA0C0691F804C000E081E0DDF81480B5
:101220000CF0030C0CFA08FC4CEA060CC0F800C0E9
:101230004E68F60074D5404ED6F860C04CF0010CF4
:10124000C6F860C0366E23F0030C06F00106009667
:101250003A4E66440296D6F808C09E074FEA1678C2
:1012600007FA08F62CEA060CB0F1904F04D0344E81
:10127000B04203D101261BE0002619E0314EB042F6
:1012800001D1022614E0304EB04201D103260FE016
:101290002E4EB04201D104260AE02D4EB04201D1BB
:1012A000052605E02B4EB04201D1062600E00726B8
:1012B00006FA08F646EA0C06DDF808C0CCF8086025
:1012C000D9F80060CC46D1F8048096435FEAC8386C
:1012D00000D51643CCF80060DAF80060D446D1F8A7
:1012E000048096435FEA883800D51643CCF8006046
:1012F000DBF80060DC46D1F8048096435FEAC8283A
:1013000000D51643CCF80060DEF80060F446D1F852
:10131000048096435FEA882800D51643CCF8006025
:101320005B1C0A6832FA03F67FF4F6AE07B000F0F1
:1013300013B800000004014000100240000001400A
:101340000004004800080048000C00480010004855
:10135000001400480018004830BCBDE8C08F006988
:10136000084000D0012070470AB181617047816256
:101370007047000001488068704700000C000020A2
:101380000248816842681144816070470C00002067
:10139000094810B50168002441F480710160032000
:1013A00000F064F8002000F009F808B1012401E021
:1013B00000F026F8204610BD0020024070B50E4E09
:1013C00005460024706898B14FF47A71B1FBF0F0D3
:1013D0000A490968B1FBF0F001F0A2F840B9102DFC
:1013E00006D200222946501E00F020F8356000E0A9
:1013F0000124204670BD00000C00002018000020D1
:10140000094808B5016E41F001010166016E01F065
:1014100001010091816D41F080518165806D00F086
:101420008050009008BD000000100240F0B40E4B48
:101430001B680C46C3F30223C3F10705042D00D932
:101440000425191D072901D2002300E0DB1E012617
:1014500006FA05F1491E214099409E40761E16402D
:101460003143F0BC01F0CABF0CED00E0064900F0CA
:10147000070208684FF6FF03184040EA0220034ABB
:1014800010430860704700000CED00E00000FA0512
:1014900070B504004FF000050FD094F83200052815
:1014A0000BD094F83200022807D094F8320094F858
:1014B00032004FF4804610B104E0012070BD0020DE
:1014C00084F83100204600F067F82068016821F4B4
:1014D00080510160E068082811D1A0682269A169E3
:1014E00040F008001143084361690843E16908437B
:1014F00021680A6844F23E739A4310430860E0682A
:101500000C280DD1A068E269616940F00C0011431C
:10151000084321680A6844F20E439A431043086066
:10152000E06868B9D4E90412A06811430843E1698E
:10153000084321680A6844F20E739A431043086016
:10154000E069B04217D1A06841F61F71022809D0A6
:10155000D4E9082040EA0220226853688B43034301
:10156000536008E0D4E90A0242EA00232268906846
:1015700088431843906007480168626821F0004181
:101580001143016094F8320010B9012084F8320050
:10159000284670BD0078004010B586B0044614217E
:1015A0006846FEF714FE1149206888421BD1104896
:1015B000816D41F080418165816D01F0804105912F
:1015C000C16C41F00101C164C06C694600F00100CA
:1015D00005900920009003200190002002904FF018
:1015E0009040FFF789FD06B010BD00000078004074
:1015F000001002402DE9F04704004FF0000907D029
:1016000094F83200052803D094F83200012804D061
:101610004FF001094846BDE8F0872068016801F0F5
:101620000C0A016821F00C0101602068016841F496
:10163000804101602568A068F8B10835206801681C
:1016400041F4805101602068016821F4005101607B
:101650002068016841F00101016010270826286810
:1016600020F01F00384328600120FFF733FD206879
:101670000068000403D5BF1B02E02D1DDEE73744E0
:101680007608ECD1286820F01F003843286001203C
:10169000FFF720FD20680068000405D428687F1C3F
:1016A00020F01F00384328602068016841F4005191
:1016B000016010264FF00808286820F4F85040EA2E
:1016C000062028600120FFF705FD2068006800045F
:1016D00001D5464401E0A6EB08064FEA58005FEA50
:1016E0000008E9D1286820F4F85040EA0620286074
:1016F0000120FFF7EFFC20680068000406D5286889
:10170000761C20F4F85040EA062028602068016822
:1017100021F0010101602068016821F4805101601D
:101720004FF48040E061A068022802D0C4E9086755
:1017300001E0C4E90A672068016821F00C0141EA70
:101740000A01016066E7002138B190F83220052ACD
:1017500003D090F83220012A02D0012108467047B8
:101760000268136843F001031360042280F83220FA
:10177000F4E700001649B0F5007F0868C0F3412087
:1017800009D0022805D0086820F4C06040F48060C9
:101790000860002070470128FBD0086820F4C06072
:1017A00040F4007008600B483222006850430A4A37
:1017B000B0FBF2F0401C00E0401E4A69520501D522
:1017C0000028F9D148694005E3D50320704700009F
:1017D000007000401800002040420F0002480068DE
:1017E00000F4C06070470000007000402DE9F84F21
:1017F000044600270088E54D3E46010504F1200B14
:101800001DD5606E78B1B0F5800F11D0B0F5000F26
:1018100004D0B0F5400F22D001270FE0E86840F473
:101820008030E8601BE00021201D01F041FB03E057
:101830000021584601F0D2FB070010D03E46208818
:10184000C00426D5A06EC0B1B0F1807F1AD0B0F12F
:10185000007F0DD0B0F1407F19D0012718E0D5F8F6
:101860008800616E20F440000843C5F88800E6E770
:10187000E86840F48030E86009E00021201D01F0B4
:1018800017FB03E00021584601F0A8FB0746F7B11B
:101890003E46206880033AD5A86D4FF00008C0008E
:1018A00009D4A86D40F08050A865A86D4FF00108DC
:1018B00000F080500090DFF8D8A2DAF8001041F470
:1018C0008071CAF80010FFF755FD814610E0D5F889
:1018D0008800A16E20F040700843C5F88800D8E762
:1018E000FFF748FDA0EB0900022801D9032705E016
:1018F000DAF80000C005F3D5002F7CD04FEA0706C8
:10190000B8F1000F03D0A86D20F08050A8652078B2
:10191000C00707D0D5F88800A16B20F0030008436A
:10192000C5F888002078800707D5D5F88800E16BD6
:1019300020F00C000843C5F888002078400707D540
:10194000D5F88800216C20F030000843C5F88800E5
:101950002078000707D5D5F88800616C20F0C0001A
:101960000843C5F888002078C00607D5D5F8880058
:10197000A16C20F440700843C5F8880020788006E8
:1019800007D5D5F88800E16C20F440600843C5F81D
:1019900088002088800507D5D5F88800E16D20F4FF
:1019A00040200843C5F888002088400507D5D5F8B1
:1019B0008800216E20F440100843C5F88800207884
:1019C000400607D5D5F88800216D20F44050084323
:1019D000C5F888002078000607D5D5F88800616D25
:1019E00020F440400843C5F888002088C00509D588
:1019F000D5F8880000E01CE0A16D20F440300843D9
:101A0000C5F8880020884FF0006780044FF0806898
:101A10004FD5D5F88800E16E20F040600843C5F846
:101A20008800E06EB8423CD1E86840F48010E8607D
:101A30003FE0D5F8900010F4407015D0D4F8841031
:101A4000814211D0D5F89000D5F8901020F4407064
:101A500041F48031C5F89010D5F8901021F4803110
:101A6000C5F89010C5F89000C00710D0FFF782FCB1
:101A7000074641F2883906E0FFF77CFCC11B494567
:101A800001D903263CE7D5F890008007F4D5D5F8B6
:101A90009000D4F8841020F440700843C5F89000FA
:101AA0002EE7404505D10121201D01F001FA00B1CA
:101AB00006462068000317D5D5F88800216F20F06E
:101AC00040600843C5F88800206FB84204D1E86838
:101AD00040F48010E86007E0404505D10121201D59
:101AE00001F0E6F900B106462068400317D5D5F8A5
:101AF0008800616F20F040600843C5F88800606F7F
:101B0000B84204D1E86840F48010E86007E040453E
:101B100005D10121201D01F0CBF900B10646208836
:101B200040041AD5D5F88800A16F20F04050084332
:101B3000C5F88800A06FB0F1805F03D0B0F1005FFE
:101B400005D00AE00221201D01F0B2F903E00221D4
:101B5000584601F043FA00B106462088000407D534
:101B6000D5F88800E16F20F080400843C5F8880070
:101B70002068C00307D555F8880FD4F8801020F0EE
:101B8000004008432860304600F004B800100240CE
:101B90000070004018BCBDE8E08F00002DE9F04760
:101BA0000F46050058D0404E306800F00700B8429C
:101BB00009D2306820F0070038433060306800F008
:101BC0000700B84248D12878384CC0072CD0686844
:101BD000032811D0022812D0216898B149050029A4
:101BE0003ADAA16821F003010143A160FFF7C2FBCB
:101BF000804641F2883910E021688901EFE72168C9
:101C00008903ECE78907EAE7FFF7B4FBA0EB0801DB
:101C1000494502D90320BDE8F087A068696800F053
:101C20000C00B0EB810FEFD12878800705D5A068B4
:101C3000A96820F0F0000843A060306800F00700B9
:101C4000B8420BD9306820F0070038433060306864
:101C500000F00700B84201D00120DCE728784007F7
:101C600005D5A068E96820F4E0600843A060287802
:101C7000000706D5A068296920F4605040EAC10039
:101C8000A06000F01BF8A168094AC1F30311515C80
:101C900001F01F01C8400749086007480068BDE817
:101CA000F047FFF78BBB000000200240001002400D
:101CB00054490008180000200C00002070B5254988
:101CC000002318468A68CC6812F00C0204F0030660
:101CD000214C4FEA640509D00C2A05D0042A32D0E1
:101CE000082A00D1284670BD012E10D10B681B07B1
:101CF00004D4D1F89430C3F3032302E00B68C3F398
:101D00000313164E56F82330DAB10C2AEBD1C8680B
:101D100000F00300022818D0032818D01846CA681B
:101D2000CB68C2F30212C3F306234343521CB3FB36
:101D3000F2F2C868C0F34160401C4000B2FBF0F012
:101D400070BD184670BD204670BD2046E7E72846A6
:101D5000E5E70000001002400024F4006449000898
:101D60002DE9F84304006FD0FE4DA86800F00C0682
:101D7000E86800F003072078C00664D576B10C2E21
:101D800001D1012F0AD0A069002828687AD040F03C
:101D900001002860FFF7EEFA80465DE028688007C2
:101DA00002D5A0690028DED0216A2868000703D583
:101DB000286800F0F00004E0D5F89400F02202EA70
:101DC0001010814216D9084601F08CF900283BD149
:101DD000286840F0080028602868216A20F0F00098
:101DE000084328606868E16920F47F4040EA0120E8
:101DF000686016E0286840F0080028602868216ABA
:101E000020F0F000084328606868E16920F47F4012
:101E100040EA0120686026B9206A01F063F90028D1
:101E2000D5D1FFF74BFFA968CF4AC1F30311515C2D
:101E300001F01F01C840CD490860CD480068FFF798
:101E4000BDFA00287ED12EE0CAE000BFFFF792FA6B
:101E5000A0EB0800022876D828688007F6D5286805
:101E600040F0080028602868216A20F0F00008434C
:101E700028606868E16920F47F4040EA01206860DA
:101E800011E0FFE720F001002860FFF773FA8046B9
:101E900006E000BFFFF76EFAA0EB08000228DAD8D0
:101EA00028688007F6D42078C00740D0082E18D0C4
:101EB0000C2E01D1032F14D06068B0F5803F17D0ED
:101EC000B0F5A02F286817D020F48030286028684B
:101ED00020F4802028606068E0B1FFF74BFA80466C
:101EE00014E02868800322D56068002878D01EE0BE
:101EF000286840F48030EDE740F480202860F7E760
:101F0000FFF738FAA0EB08006428A4D828688003FB
:101F1000F6D50CE0FFF72EFA804605E0FFF72AFA27
:101F2000A0EB0800642896D828688003F6D42078AF
:101F300080073BD5042E11D00C2E01D1022F0DD0DD
:101F4000E06801E092E1F1E0002828681ED040F44A
:101F500080702860FFF70EFA07460CE028684005FD
:101F60000CD5E0680028C1D008E000BFFFF702FAF6
:101F7000C01B022893D828684005F7D56868217CE3
:101F800020F0F85040EA016068600FE020F48070B3
:101F90002860FFF7EFF9074605E000BFFFF7EAF911
:101FA000C01B0228B1D828684005F7D42078000764
:101FB00029D560690028D5F8940012D040F00100BE
:101FC000C5F89400FFF7D6F9074604E0FFF7D2F909
:101FD000C01B022899D8D5F894008007F6D512E0E6
:101FE00000E120F00100C5F89400FFF7C3F90746AF
:101FF00005E000BFFFF7BEF9C01B022885D8D5F861
:1020000094008007F6D42078400766D5A86D002795
:10201000C00008D4A86D40F08050A865A86D0127C5
:1020200000F08050009053480168C90512D401683F
:10203000814641F480710160FFF79CF9804605E01C
:10204000FFF798F9A0EB080002286FD8D9F8000034
:10205000C005F5D5A068012816D00528D5F8900050
:1020600017D020F00100C5F89000D5F8900020F0BE
:10207000040000BFC5F89000A06841F28839C0B1E3
:10208000FFF778F980460FE0D5F8900040F00100A6
:10209000F0E740F00400C5F89000F5E7FFF76AF9B3
:1020A000A0EB0801494541D8D5F890008007F5D547
:1020B0000EE0FFF75FF9804606E000BFFFF75AF930
:1020C000A0EB0801494531D8D5F890008007F5D438
:1020D0001FB1A86D20F08050A865A06A38B302280F
:1020E0000AD00C2E7ED0286820F0807028602868E6
:1020F00010F0205F77D0AAE0E868E26A00F0030100
:1021000091422BD1216B00F07002090110399142EC
:1021100024D1626B00F4FE41B1EB022F1ED1A26B01
:1021200000F40031072A03D0012202E09DE089E09B
:102130000022914212D1A18F00F4C0024908490542
:10214000A1F50011914209D194F8401000F0C0604F
:1021500049084906A1F1007181425CD00C2E41D0A2
:10216000286809E0001002405449000818000020C7
:102170000C0000200070004040017ED42868C000A0
:102180007BD4286820F080702860FFF7F3F80646BB
:1021900005E000BFFFF7EEF8801B022865D828682D
:1021A0008001F7D4D4E90B016FF00F0202EB0111AB
:1021B0000843A18F5204490802EB4151626B41EA86
:1021C0000221084394F840104FF07E42490802EB88
:1021D00041610843A16B090940EA4140E968284A86
:1021E000114001E049E02EE00843E860286840F033
:1021F00080702860E86840F08070E860FFF7BAF807
:10220000044604E0FFF7B6F8001B02282DD8286822
:102210008001F7D52FE0286880012CD4286840F091
:1022200080702860E86840F08070E860FFF7A2F8EE
:10223000044604E0FFF79EF8001B022815D8286822
:102240008001F7D517E0E86820F00300E860E8684F
:102250000C490840E860FFF78DF8044608E000BF2D
:10226000FFF788F8001B022802D90320BDE8F88395
:1022700028688001F4D40020F8E70120F6E7000088
:102280008C809DF9FFFFEEFE2DE9F041040005D0A2
:102290000025A56294F85D0018B107E00120BDE8B3
:1022A000F08184F85C50204600F044F8022384F862
:1022B0005D302068016821F040010160E0684FF462
:1022C000E066B04201D9002101E04FF48051B0F541
:1022D000706F02D0B04200D0A562276B012227B9EF
:1022E000B04201D9236300E02263D4E9010318431B
:1022F000D4E9043633431843238B03F400731843A3
:10230000E3691843236A1843A36A184323681860D3
:10231000636B606AA66918430427E36807EA1646F8
:1023200033431843084321684860256684F85D20DC
:102330000020B4E710B586B0044614216846FDF7C6
:1023400046FF1349206888421FD11248016E41F4AC
:1023500080510166016E01F480510591C16C41F01C
:102360001001C164C06C694600F0100005904FF484
:102370006040009002200190002002900320039012
:10238000052004900448FEF7B7FE06B010BD00001B
:102390000030014000100240001000482DE9F84FC5
:1023A000044690F85C0000271D4616468946012821
:1023B0000DD04FF0010B84F85CB0FEF7DBFF8046D8
:1023C00094F85D00BA46012804D002279FE002205D
:1023D00000F0A3B8B9F1000F6FD0002E6DD003202C
:1023E00084F85D00C4F860A0C4F83890A687E6873A
:1023F000C4F840A0A4F844A0A4F846A0C4F850A093
:10240000C4F84CA0A068B0F5004F04D12068016862
:1024100041F48041016020680168490603D40168E5
:1024200041F040010160E068B0F5E06F606823D9D9
:1024300008B1012E1CD1A06B21680088C86006E09D
:1024400020688168890709D5A16B0988C160A06BE4
:10245000801CA063E08F401EE08709E0FEF78AFF42
:10246000A0EB0800A84202D3681C01D046E0ADB33F
:10247000E08F0028E4D136E008B1012E30D1E08FA2
:102480000128A06B03D921680088C8600FE021688B
:102490000078087314E0E08722E0206881688907EB
:1024A00014D5E18F0129A16B08D90988C160A06BFF
:1024B000801CA063E08F801EEDE727E009780173A0
:1024C000A06B401CA063E08F401EE4E7FEF752FFC4
:1024D000A0EB0800A84202D3681C01D00EE06DB149
:1024E000E08F0028D9D142462946204600F038FE28
:1024F00008B120202066A06810B105E0032706E09F
:102500002068C16880680090206E00B1012784F8BF
:102510005DB084F85CA038465AE718BCBDE8E08F8F
:1025200010B5401EB0F1807F01D3012010BD4FF0E7
:10253000E02460610F21601700F060FF0020A061BF
:1025400007202061002010BDFEE70000F0B52DED52
:10255000048B044685B00D46002000F031FADFED13
:10256000670AB0EE600A9FED661A4FF4EF72012D14
:102570000BD100215FF0050034F81130B3FBF0F30C
:1025800024F81130491C9142F6DB002034F8101079
:1025900001EE901AF8EE611AF4EEC01AF1EE10FA9C
:1025A00003DD00EE101AB8EE400A01EE901AF8EEC4
:1025B000611AF4EEC11AF1EE10FA03D201EE101A0C
:1025C000B8EE411A401C9042E0DB002034F81010B5
:1025D000401C01EE901A9042F8EE611A71EEA00ACA
:1025E000F4DB9FED482AC0EE821ADFED470A022491
:1025F00046A0CDE9000400234FF4FC674FF4967623
:1026000020EE208A61EE208A3A463146184621EEB5
:10261000A09A00F07FF918EE100AFDF7E3FDCDE96E
:1026200000013CA2052102A800F0D0FE02ADCDE9D8
:10263000005400233A463146322000F06BF936A0B0
:10264000CDE9000400234FF48C763A463146184613
:1026500000F060F918EE900AFDF7C4FDCDE9000125
:102660002CA2052102A800F0B1FECDE90054002300
:102670003A463146322000F04DF929A0CDE9000458
:1026800000234FF4827638EE688A3A46314618467F
:1026900000F040F918EE100AFDF7A4FDCDE90001A5
:1026A0001CA2052102A800F091FECDE900540023F0
:1026B0003A463146322000F02DF91AA0CDE9000447
:1026C00000233A46F021184600F024F919EE100ACA
:1026D000FDF788FDCDE900010EA2052102A800F05A
:1026E00075FECDE9005400233A46F021322000F077
:1026F00011F905B0BDEC048BF0BD00000000000036
:102700000000A0430000EF430000A03D566D61783B
:102710000000000025660000566D696E0000000094
:1027200056707000417667002DE9F05F9046DDE954
:102730000A621F46022A56D84FEA172B4FEA182A78
:10274000012A22D001F1100293B2C21D92B200F010
:1027500051FA2C2001F07EFC2A48002400EB0619D7
:10276000C4F1100009EB00060025A6F5805600BF55
:1027700096F8000EC5F10701C840C00735D0504695
:1027800001F04CFC08F0FF0033E001F1080293B2C5
:10279000421D92B200F02EFA2C2001F05BFC1A4888
:1027A000002500EBC609C5F1060009EB000602246E
:1027B000A6F58056C4F1070196F8000FC840C0077F
:1027C00005D0504601F02AFC08F0FF0003E058460F
:1027D00001F024FCF8B201F021FC641C082CE9DBB8
:1027E0006D1C082DDFDB00F011B8584601F016FC17
:1027F000F8B201F013FC6D1C082DB9DB641C102C21
:10280000AEDBF0E7644300088C40000830BCBDE854
:10281000C09F00002DE9F0470E464FF4FA740746BA
:10282000B4EB460F00D90C46DFF8849001229102E8
:102830004D464846FEF798FD4FF4006A0022514687
:102840002846FEF791FD4FEA1728204601F0B0FB1D
:1028500005460020F9B204E005F800802A18801C23
:102860005170A042F8D37000B0FBF4F1B0FBF4F764
:1028700004FB110857B1002606E0A2B20A2329463C
:102880000C48FFF78BFD761CBE42F6D31FFA88F288
:102890000A2329460748FFF781FD01225146484691
:1028A000FEF762FD2846BDE8F04701F033BA0000AC
:1028B00000100048BC0000202DE9F04110244FF426
:1028C00090784CF218654FF4F076A0B22B46424651
:1028D000002100F0DFF92034B442F6DD00244FF48B
:1028E000A077A1B22B463246002000F07DF82034BC
:1028F000BC42F6DD4FF4FC64234642460021F02042
:1029000000F0C8F923463246BDE8F04100210846F0
:1029100000F06AB82DE9FC5F0446DDE90C6521484A
:102920009A4693460F464FF00108012D34D0022DF0
:1029300036D181463078002832D0B9F8021004EB45
:10294000C5028A4203D907EBC50101248FB2CDE944
:10295000000553465A4639462046FFF7E5FE04EB8C
:10296000C80084B2761CE5E7B8F8021004EBC50293
:102970008A4203D907EBC50101248FB2CDE90005D6
:1029800053465A4639462046FFF7CEFE04EBC500B3
:10299000801E84B2761C00E0804630780028E3D1A7
:1029A00000F002B8000000203CBCBDE8C09F000061
:1029B000012211030148FEF7D7BC000000100048B7
:1029C00070B5084C0546002123886288084600F04F
:1029D00011F96188208841432846BDE87040FFF71F
:1029E00019BF00000000002070B51D460D4B1446B5
:1029F0005A88904214D21B88994211D203195B1E47
:102A0000934201DB121A94B20219521E92B20B4683
:102A100000F0F0F821462846BDE87040FFF7FABE06
:102A200070BD00000000002010B5FFF7C1FF00F0EE
:102A3000BBFB00F0C1F8012001F00CFB4FF47A70F1
:102A4000FEF748FBB92001F005FBFF2001F0E6FA94
:102A5000832001F0E3FA572001F0E0FAFF2001F0B3
:102A6000DDFA4FF49670FEF735FBB02001F0F2FA74
:102A7000682001F0D3FACC2001F0ECFA052001F037
:102A8000CDFA3A2001F0E6FA552001F0C7FA3620D7
:102A900001F0E0FA002001F0C1FA352001F0DAFA85
:102AA000002001F0BBFA442001F0D4FA002001F02C
:102AB000B5FA022001F0B2FA112001F0CBFA96200B
:102AC000FEF708FB292001F0C5FABDE810403220CE
:102AD000FEF700BB2DE9FF5F1C460E98154606B2B7
:102AE000331BA2EB010200D55B42002A00DA5242FE
:102AF000934207DD08462146044628464FF0010868
:102B0000354601E04FF00008A94205DD0A46294696
:102B10001546224604B210466A1A0FFA82F909EBEA
:102B2000D972561002B2101B00D540420FFA80FB3A
:102B3000944201DA012001E04FF0FF30824615E0B7
:102B4000B8F1000F02D0B9B2A0B201E0A1B2B8B2A0
:102B5000009A00F013F8A6EB0B0006B2002E03DA81
:102B600004EB0A0004B24E467F1C39B20F46A9425C
:102B7000E6DD00F000B83FBCBDE8C09F10B50D4BCE
:102B800014465A88904213D21B88994210D25B1E79
:102B9000521E9BB292B200F02DF82C2001F05AFA8E
:102BA000200A01F03BFAE0B2BDE8104001F036BA6D
:102BB00010BD00000000002070B50D4D4FF4805492
:102BC000002221462846FEF7CFFBC820FEF782FAF6
:102BD000002261102846FEF7C7FBC820FEF77AFAEC
:102BE00021462846BDE870400122FEF7BDBB00002B
:102BF000001000482DE9F04107461C4615460E46D8
:102C00002A2001F027FA380A01F008FAF8B201F098
:102C100005FA280A01F002FAE8B201F0FFF92B20C8
:102C200001F018FA300A01F0F9F9F0B201F0F6F902
:102C3000200A01F0F3F9E0B201F0F0F9BDE8F0414B
:102C40002C2001F007BA00002DE9F041074636209C
:102C500001F000FA0E4C4FF4A0764FF4F0756FB10E
:102C6000012F0DD0022F0DD0032F05D15FF0E8000A
:102C700001F0D4F965802680BDE8F081482002E0AB
:102C80002820F5E7882001F0C9F966802580F3E760
:102C90000000002070B514460D4A1D465388984226
:102CA00014D21288914211D20B195B1E934201DBA0
:102CB000521A94B20A19521E93B20246FFF79AFFB3
:102CC00021462846BDE87040FFF7A4BD70BD000056
:102CD0000000002000EB8100006E00F0F84070471B
:102CE0008068C0F3C00070478068C0F38000704700
:102CF0008068C0F380007047C06810F4406F01D056
:102D00000020704701207047042303EAD15310B517
:102D100018444369C1F3045107248C40A3438A40FB
:102D20001343436110BD00EB8100016E21F00041AF
:102D3000114301667047000010B58AB00024069464
:102D40000794182168460894FDF741FA1948184974
:102D500001604FF48011C0E901140821C460C0E98A
:102D60000441047601214176C16180F82040C0E928
:102D70000914C46280F830400903416380F8384088
:102D8000FDF7A0FF06A90B480694FDF721FD0A48B0
:102D900000900620CDE901047F2003900420CDE9B6
:102DA000040469460348FDF78BFD0AB010BD00001E
:102DB000000004502400002040002019F0B587B026
:102DC00014216846FDF703FA1D48C16C41F08001EB
:102DD000C164C16C01F080010591C16C41F0010139
:102DE000C164C16C01F001010591C16C41F00201A7
:102DF000C164C16C01F002010591C16C41F0100188
:102E0000C164C06C0F4F00F010004FF4E056059005
:102E1000002231463846FEF7A7FACC2000240125CF
:102E20008DE8310069460848FEF766F90096CDE95D
:102E30000154694638460394FEF75EF907B0F0BDC9
:102E4000001002400010004800040048134882B0FF
:102E5000016E41F480510166006E114900F480500A
:102E6000009010484FF4E06201604FF482714160BD
:102E70000021C0E902124FF400720161C0E905129D
:102E80001022C0E9072107224162C0E90A1201634A
:102E90000821416302B0FFF7F7B9000000100240BB
:102EA00000300140BC000020FEE770477047000082
:102EB0002DE9F041444C05468846E068002681072C
:102EC00028680DD0E16801F00301814216D1A8B154
:102ED000E0686968C0F30210401C88420ED120E00F
:102EE000012804D0022805D0032807D108E0216872
:102EF000890701E021684905002907DB01265FE019
:102F00002168890302D421684903F5E7E1686A680A
:102F10006FF00F0321F0730103EB02121143014321
:102F2000E160206820F080602060FEF723FA074609
:102F300005E000BFFEF71EFAC01B022837D8206844
:102F40000001F7D4B8F1000F18D0B8F1010F1ED06E
:102F5000287D4FF07E41400801EB4060A96840EABF
:102F600001202169194A114008432061206840F07E
:102F700080602060FEF7FEF907461AE0A868E9685D
:102F80000002090940EA41402169114AEBE7288A19
:102F90001049400801EB4050A96840EA012021692E
:102FA0000D4AE0E7FEF7E6F9C01B022801D9032627
:102FB00006E020680001F5D52069A9690843206171
:102FC0003046BDE8F081000000100240FF80FFF9AC
:102FD000FF80FDFF0000E0FFFF809FFF2DE9F04133
:102FE0003D4C06468846E0680025810730680DD0D4
:102FF000E16801F00301814216D1A8B1E06871686F
:10300000C0F30210401C88420ED120E0012804D0F9
:10301000022805D0032807D108E02168890701E0CC
:1030200021684905002907DB012551E02168890352
:1030300002D421684903F5E7E16872686FF00F0375
:1030400021F0730103EB021211430143E160206898
:1030500020F080502060FEF78DF9074605E000BFA4
:10306000FEF788F9C01B022829D820688000F7D411
:10307000B8F1000F15D0307C4FF07E41400801EBD5
:103080004060B16840EA01206169144A1140084378
:103090006061206840F080502060FEF76BF90746C1
:1030A0000FE0B068F1680002090940EA4140616937
:1030B0000B4AEBE7FEF75EF9C01B022801D9032596
:1030C00006E020688000F5D5606971690843606199
:1030D0002846BDE8F081000000100240FF80FFF9A3
:1030E000FF80FDFFF8B51C4D06460024A86DC0000A
:1030F00002D5FEF773FB0DE0A86D40F08050A86587
:10310000A86D00F080500090FEF768FBA96D21F0DB
:103110008051A965B0F5007F04D0802E07D94FF00B
:1031200003040AE0802E08D9A02E01D804E001D1C2
:10313000022402E0702E00D101240848016821F029
:10314000070121430160006800F00700A04201D0A0
:103150000120F8BD0020F8BD001002400020024010
:10316000F8B515460E460B460092044600224FF471
:10317000C05100F02BF888B9334600228021204648
:10318000009500F06EF848B9334600224FF4C06154
:103190002046009500F01AF8002804D0206E40F078
:1031A000200020660320F8BD00224FF40061014892
:1031B000FEF7DAB80010004801B501231A46694647
:1031C0000148FFF7EBF808BDBC0000202DE9F047EF
:1031D0001D4617460E4604464FF4C068DDF82090A1
:1031E0000CE0464501D107B9007B681C06D0FEF70C
:1031F000C1F8A0EB0900A84208D23DB1206881685F
:103200003140B942EDD10020BDE8F0872068416827
:1032100021F0E00141606068B0F5827F0BD1A068C9
:10322000B0F5004F02D0B0F5806F04D1206801687E
:1032300021F040010160A06AB0F5005F09D120686B
:10324000016821F4005101602068016841F40051D7
:103250000160012084F85D00002084F85C000320F8
:10326000D2E72DE9F0411D4617460E460446DDF82B
:10327000188008E0681C06D0FEF77CF8A0EB080078
:10328000A8420BD255B12068806836EA000030D0E1
:103290000020B842EED10020BDE8F08120684168EE
:1032A00021F0E00141606068B0F5827F0BD1A06839
:1032B000B0F5004F02D0B0F5806F04D120680168EE
:1032C00021F040010160A06AB0F5005F09D12068DB
:1032D000016821F4005101602068016841F4005147
:1032E0000160012084F85D00002084F85C00032068
:1032F000D2E70120CDE77047FEF742B8F0B5B9B08C
:10330000442122A8FCF763FF142133A8FCF75FFFD8
:1033100088216846FCF75BFF1020012400262290DC
:10332000CDE9284602256020CDE92C542A9024209E
:103330000727CDE92E40CDE93075329522A8FEF75A
:103340000FFD0F2033900320CDE93406369604217B
:1033500033A83796FEF722FCA003009080031E904E
:103360001820CDE9024001942006CDE90650CDE9B0
:1033700004756846FEF73AFA6002FEF7FBF939B0C9
:10338000F0BD00000D48016841F4700101600C4877
:10339000016841F001010160002181600268094B70
:1033A0001A4002608214C260026822F48022026025
:1033B00081610249C00380390860704788ED00E0F0
:1033C00000100240FFFFF6EAFEE700000FB41CB554
:1033D0000246002007AC00290BD0491ECDE9002190
:1033E000054B6A462146069800F0EEF8009A002147
:1033F00011701CBC5DF814FBFD3C00080907090EA8
:10340000002804DB00F1E02080F80014704700F091
:103410000F0000F1E02080F8141D704702E008C89A
:10342000121F08C1002AFAD170477047002001E03E
:1034300001C1121F002AFBD1704700002DE9FF5F78
:1034400082B00021DDE90430020DDDF840B0034315
:1034500018D044F61050A2F2FF32424315141198CE
:1034600001281FD0A5EB0B00401C5FEA000A4FF0BB
:1034700000064E4FDFF83891B046504615D5CAF1D8
:10348000000413E0119801244AA3012801D16FEA36
:103490000B010298119AC0E90031C0E9024206B05E
:1034A00000F08EB8CBF10000DFE704460021404A6F
:1034B000491842EB0450CDE9001012E0E00707D0B4
:1034C00032463B4640464946FCF798FF80468946CF
:1034D00032463B4610461946FCF790FF06460F461B
:1034E0006410002CEAD1DDE90401DDE90023BAF122
:1034F000000F06DAFCF782FF42464B46FCF77EFFE0
:1035000005E0FCF7F0FF42464B46FCF7ECFF0446B3
:103510000E460022284BFDF76DF803D84FF0FF3020
:10352000014607E00022254B20463146FCF7B7FE56
:10353000FDF748F8102409E0002C0ADB0A220023DA
:10354000FCF779FE039B30321A55641E50EA0102E3
:10355000F2D1641C039AC4F111031444119A012A94
:1035600003D0012208430DD10AE0084304D0002013
:103570004FF0110B119072E7A3EB0B056D1E0DE0E0
:103580005B4504DD4FF0000205F1010504E003DABC
:103590004FF00002A5F10105002AECD00298119924
:1035A000C0E90231C0E9004579E70000000014409D
:1035B0000000F03F300000000000F0430000E03F5A
:1035C00030BCBDE8C09F00002DE9FF4F95B09B4681
:1035D0008946064600250FE2252877D10024274694
:1035E000F84A0121059400E0044316F8013F203B0E
:1035F00001FA03F01042F7D130782A2811D06FF089
:103600002F033078A0F13002092A16D8059A44F029
:10361000020402EB820203EB42021044761C059086
:10362000EFE759F8042B0592002A03DA504244F4DC
:103630000054059044F00204761C30782E2816D1F0
:1036400016F8010F44F004042A280DD06FF02F0261
:103650003078A0F13003092B09D807EB870302EB80
:103660004303C718761CF3E759F8047B761C3078BF
:103670006C280FD006DC4C2817D068280DD06A289B
:1036800014D104E0742810D07A280FD10DE044F44E
:1036900000140AE044F4801401E044F44014727809
:1036A000824202D104F58014761C761C307866289C
:1036B0000BD013DC582877D009DC002875D04528BA
:1036C000F6D04628F4D047281AD19DE118E06328A7
:1036D00035D0642879D0652812D195E1702873D04F
:1036E00008DC6728F1D069286FD06E280DD06F28CC
:1036F00006D1B5E073282CD0752875D0782874D001
:103700005A46179990476D1C75E1C4F30250022880
:1037100009D003280DD0D9F8001004280DD00D6071
:1037200009F1040967E1D9F80010EA17C1E900526C
:10373000F6E7D9F800100D80F2E70D70F0E719F800
:10374000041B8DF8001000208DF80100EA460120CE
:1037500003E059F804AB4FF0FF3061074FF0000170
:1037600002D40DE008F101018846B9420FDA804524
:10377000F8DB1AF808100029F4D108E008F101017B
:1037800088468142FADB1AF808100029F6D105981C
:103790005B46A0EB080721463846179A00F097FAD7
:1037A000284400EB080507E04DE029E10DE01AF898
:1037B000010B5A4617999047B8F10108F7D25B46BA
:1037C00021463846179A13E142E00A220092C4F3D8
:1037D00002524FF0000A022A08D059F804CB032AFB
:1037E0004FEAEC710AD00DE029E02AE009F1070167
:1037F00021F00702F2E802C1914609E00FFA8CFCC1
:103800004FEAEC71042A03D14FFA8CFC4FEAEC71B9
:10381000002907DA0A460021DCF1000C61EB020105
:103820002D2202E0220504D52B228DF8042001224E
:1038300003E0E20701D02022F7E7904659E00A2191
:1038400002E010220DE010214FF0000A00910BE081
:1038500010224FF0000A44F004040827009203E00D
:1038600008224FF0000A0092C4F30252022A05D047
:1038700059F804CB0021032A08D009E009F1070117
:1038800021F00702F2E802C1914605E01FFA8CFC24
:10389000042A01D10CF0FF0C4FF00008220728D5B4
:1038A000702806D0009B83F0100353EA0A0305D06A
:1038B0000EE040228DF80420012208E05CEA0102BB
:1038C00006D030228DF804208DF8050002229046A3
:1038D000009B83F0080353EA0A030AD15CEA010261
:1038E00001D1620705D530228DF804204FF0010880
:1038F0007F1E582804D034A003900EA802900DE03B
:1039000036A0F9E753466046009AFCF794FC8446DB
:103910000398825C0298401E029002705CEA0100EB
:10392000F0D1029806A9081A00F1200A600702D512
:1039300024F4803400E00127574502DDA7EB0A009C
:1039400000E0002000EB0A01009005984144401A75
:103950000590E00306D45B462146179A059800F0CF
:10396000B6F90544002706E001A85A46C05D17993C
:1039700090476D1C7F1C4745F6DBE0030CD55B468A
:103980002146179A059800F0A2F9054404E030207A
:103990005A46179990476D1C0099481E00900029BF
:1039A000F5DC08E0029802995A460078491C029119
:1039B000179990476D1CBAF10001AAF1010AF1DCD8
:1039C00065E10000092801003031323334353637E3
:1039D000383961626364656600000000303132335B
:1039E00034353637383941424344454600000000FB
:1039F00000F05BF90544761C307800287FF4ECADCC
:103A000019B0284600F04EB9620700D4062709F124
:103A1000070222F0070CFCE80223E14603F000480D
:103A20005FEA080C02D00FF2702C0DE05FEA045C34
:103A300002D50FF2682C07E05FEAC47C02D00FF2D7
:103A4000602C01E0AFF2700C4FF0FF3823F0004320
:103A5000CDF850C065280CD006DC452809D0462892
:103A60001DD047283DD13DE0662818D067287ED17B
:103A700038E00021112F01DB112000E0781CCDE996
:103A8000000106A90EA8FFF7D9FCDDE90F010E9A87
:103A900003910021009207F1010A04914DE04FF0DB
:103AA00000400097CDE9011006A90EA8FFF7C6FC5B
:103AB000DDE90F0203920E9B11990022DDF80CA0A4
:103AC0000093049211B9791C00EB010AB7EB0A00CC
:103AD00004D4C0F1FF3007F1010A0490AAEB0700FB
:103AE000019044E0012F00DA01270021112F01DDB0
:103AF000112000E03846CDE9000106A90EA8FFF725
:103B00009DFCDDE90F010E9A0391002104910092C2
:103B1000BA4621070CD40399514500DA8A46BAF116
:103B2000010F05DD009AAAF10101515C302908D08E
:103B3000B84202DA10F1040F06DA0121CDE90110D2
:103B400015E0AAF10101E9E7002805DC0499014428
:103B50000491AAEB000102E0411C514500DD8A46B8
:103B60000499401A401C01904FF000400290200739
:103B700004D40198504501DBCDF8048000208DF875
:103B80004F0002980DF14F07B0F1004F25D02B20C8
:103B90000E9002984FF0020800280CDA4042029082
:103BA0002D200E9007E00A210298FCF72EFB303101
:103BB000029007F8011DB8F10001A8F10108F2DC3C
:103BC00002980028EFD1791E0E980870307800F026
:103BD000200040F0450007F8020D12A8C01B00F1BC
:103BE00007081498007800B1012000EB0A01019841
:103BF00001EBE07105984144401A401E0590E00336
:103C000006D45B462146179A059800F060F80544F3
:103C10001498007818B15A46179990476D1CE00324
:103C200024D55B462146179A059800F050F80544C4
:103C30001CE00498002807DBDDE90301884203DD6E
:103C40000098405C179901E0179930205A46904738
:103C5000049805F10105401C04900198401E019054
:103C600004D12E205A46179990476D1CBAF10001D5
:103C7000AAF1010ADDDC05E017F8010B5A46179995
:103C800090476D1CB8F10001A8F10108F4DC5B4617
:103C90002146179A0598ABE62D0000002B00000086
:103CA0002000000030BCBDE8C08F2DE9F041044683
:103CB00000251E461746880404D405E03946202016
:103CC000B0476D1C641EF9D52846BDE8F0812DE98A
:103CD000F041044600251E469046C80301D5302712
:103CE00000E02027880404D505E041463846B04767
:103CF0006D1C641EF9D52846BDE8F0814A68002A8B
:103D000006D00A68531C0B6010704868401E48605B
:103D10007047000010B5002821D0114B0022001F71
:103D2000196803E0814203D80A4649680029F9D19D
:103D300052B11368841A9C4204D100681844106080
:103D4000104602E0506000E0186039B102680B1ABA
:103D5000934203D10B681A4402604968416010BD68
:103D60001C0000201FB5FDF713FBFFF7C7FAFFF794
:103D700025F8FFF76BF8FEF7DFFF864884494FF020
:103D8000000901600905416008218A01C160C0E99C
:103D90000429C0F81890C0F80890C0F81C90FDF7EE
:103DA00077FB4FF47A70FDF795F97A48FDF7F4FB4D
:103DB0007848FDF71FFC7748FDF7C5FC754834309F
:103DC000FEF7B8FA73486438FDF70AF9FEF72CFEDF
:103DD0000120FEF739FF0020FEF7F2FDFEF76CFD33
:103DE000DFF8B0A16C4DDFF8B4814FF0010B0AF1A0
:103DF000980A4FF4EF76802144464046FDF7AFFA2B
:103E000070B9286810B1C5F8009003E0C5F800B09B
:103E100000E000BF80212046FDF7A1FA0028F8D07D
:103E200040212046FDF79BFA70B9686810B1C5F8CB
:103E3000049003E0C5F804B000E000BF4021204634
:103E4000FDF78DFA0028F8D00421A0462046FDF7A2
:103E500086FAE8BB0020FEF7B3FDFEF72DFD504FBC
:103E600000244C4839466438FDF73EF848B94948C3
:103E70006438FCF724FF4FF4C3514843010C2AF87F
:103E80001410641CA4B2B442EBD9686801280BD1A9
:103E90000020514631F8102002EB820221F8102058
:103EA000401C80B2B042F5D92868A0B9002457461A
:103EB00007EB440021B2B0F902000090601C02B28E
:103EC00037F914304FF6E070FEF704FE641C00E092
:103ED0001EE0B442ECDB2868012813D100273C46E1
:103EE0000AEB4701A01DB1F90210009102B23AF9A4
:103EF000173021B24FF6E070FEF7ECFDA41D7F1CD9
:103F0000B442EDDB444604212046FDF728FA98B17F
:103F100008214046FDF723FA00287FF46CAF1D48C6
:103F200069689830FEF712FB1A4800271C4964386C
:103F3000FCF7DAFF10B106E000BFE4E7154864388B
:103F4000FCF7BDFE87B2022416A0CDE900040023D1
:103F50004FF4FC62DC211846FEF7DCFC3B4613A262
:103F6000052102A8FFF732FA02A8CDE900040023D8
:103F70004FF4FC62DC213220FEF7CCFC444600E02A
:103F800000BF08212046FDF7EAF90028C5D1F7E770
:103F90000078004088000020040000200004004851
:103FA000A0860100414443203078000025750000C0
:103FB000F0B50B30154D20F007010024144A0FE036
:103FC00003688B420BD38B4205D95E1A43184768AE
:103FD000C3E9006700E04368136002C004E0021D0B
:103FE00010680028ECD12046002802D1286808B1CA
:103FF0000020F0BD064A07481060074A121A22F056
:104000000702C0E9002401202860D7E72000002033
:104010001C000020E4040020E006002070B50C4CD9
:104020000646012291022046FDF79EF94FF40065F5
:10403000002229462046FDF797F93046FFF7BCF8E5
:1040400029462046BDE870400122FDF78DB90000E9
:104050000010004870B50C4D06464FF40064002275
:1040600021462846FDF780F9002261102846FDF719
:104070007BF93046FFF7A0F821462846BDE870409E
:104080000122FDF771B90000001000480000000097
:104090000000000004040404000400000A0A0A00EE
:1040A000000000000A0A1F0A1F0A0A00040F140E6B
:1040B000051E040018190204081303000C1214084A
:1040C00014120D000C04080000000000020408088F
:1040D0000804020008040202020408000004150E8D
:1040E000150400000004041F040400000000000088
:1040F0000C0408000000001F000000000000000089
:10410000000C0C0000010204081000000E11131531
:1041100019110E00040C040404040E000E11010217
:1041200004081F001F02040201110E0002060A12F9
:104130001F0202001F101E0101110E000608101EB2
:1041400011110E001F010204080808000E11110EC3
:1041500011110E000E11110F01020C0000010204DA
:1041600008100000000C0C000C04080002040810E9
:104170000804020000001F001F00000008040201E4
:10418000020408000E110102040004000E11010DCA
:1041900015150E000E1111111F1111001E11111E07
:1041A00011111E000E11101010110E001C12111111
:1041B00011121C001F10101E10101F001F10101EC7
:1041C000101010000E11101711110E001111111FF7
:1041D000111111000E04040404040E00070202026F
:1041E00002120C00111214181412110010101010E9
:1041F00010101F00111B15151111110011111915A7
:10420000131111000E11111111110E001E11111EAA
:10421000101010000E11111115120D001E11111E9B
:10422000141211000F10100E01011E001F040404CF
:10423000040404001111111111110E0011111111BA
:10424000110A04001111111115150E0011110A04A3
:104250000A1111001111110A040404001F010204C3
:1042600008101F000E08080808080E00110A1F0495
:104270001F0404000E02020202020E00040A1100D2
:10428000000000000000000000001F000804000003
:104290000000000000000E010F110F0010101E1191
:1042A00011111E0000000E1010110E0001010D135F
:1042B00011110F0000000E111F100E000609081C3E
:1042C00008080800000F11110F010E001010161938
:1042D0001111110004000C0404040E000200060277
:1042E00002120C00101012141814120018080808FA
:1042F00008081C0000001A151511110000001619FD
:104300001111110000000E1111110E0000001E11FC
:104310001E10100000000F110F01010000001619FF
:104320001010100000000E100E011E0008081C08DE
:10433000080906000000111111130D0000001111F1
:10434000110A04000000111111150A000000110AE1
:10435000040A1100000011110F010E0000001F02DD
:1043600004081F0000000000000000000000000022
:1043700000000000000000183C3C3C181800181811
:1043800000000000000000666666000000000000FB
:104390000000000000000036367F3636367F3636A5
:1043A000000000000018183C666030180C06663CDF
:1043B00018180000000070D8DA760C18306E5B1BFD
:1043C0000E000000000000386C6C38606F66663BC1
:1043D0000000000000000018181800000000000095
:1043E000000000000000000C181830303030301889
:1043F000180C00000000003018180C0C0C0C0C18E5
:10440000183000000000000000361C7F1C36000041
:1044100000000000000000000018187E18180000BE
:1044200000000000000000000000000000001C1C54
:104430000C180000000000000000007E00000000DA
:1044400000000000000000000000000000001C1C34
:104450000000000000000006060C0C181830306048
:10446000600000000000001E333737333B3B331E33
:10447000000000000000000C1C7C0C0C0C0C0C0C50
:10448000000000000000003C6666060C1830607EEC
:10449000000000000000003C6666061C0666663CE4
:1044A000000000000000003030363636667F060619
:1044B000000000000000007E6060607C06060C7852
:1044C000000000000000001C18307C666666663C38
:1044D000000000000000007E060C0C181830303080
:1044E000000000000000003C6666763C6E66663C9C
:1044F000000000000000003C666666663E0C18384E
:104500000000000000000000001C1C0000001C1C3B
:104510000000000000000000001C1C0000001C1C2B
:104520000C180000000000060C18306030180C0653
:10453000000000000000000000007E007E0000007F
:10454000000000000000006030180C060C183060FD
:10455000000000000000003C66660C1818001818E7
:10456000000000000000007EC3C3CFDBDBCFC07FB4
:1045700000000000000000183C6666667E66666605
:10458000000000000000007C6666667C6666667C53
:10459000000000000000003C666660606066663CEB
:1045A00000000000000000786C66666666666C7845
:1045B000000000000000007E6060607C6060607E43
:1045C000000000000000007E6060607C6060606051
:1045D000000000000000003C666660606E66663E9B
:1045E00000000000000000666666667E666666661D
:1045F000000000000000003C181818181818183C9B
:104600000000000000000006060606060666663C7E
:104610000000000000000066666C6C786C6C6666DA
:104620000000000000000060606060606060607E0C
:10463000000000000000006363776B6B6B636363D3
:10464000000000000000006363737B6F67636363B7
:10465000000000000000003C666666666666663C18
:10466000000000000000007C6666667C60606060A0
:10467000000000000000003C666666666666663CF8
:104680000C0600000000007C6666667C6C66666650
:10469000000000000000003C666030180C06663C1C
:1046A000000000000000007E1818181818181818CC
:1046B0000000000000000066666666666666663C8E
:1046C00000000000000000666666666666663C18CC
:1046D000000000000000006363636B6B6B363636CE
:1046E0000000000000000066663418182C6666663C
:1046F00000000000000000666666663C1818181886
:10470000000000000000007E06060C183060607E8D
:10471000000000000000003C3030303030303030DD
:1047200030303C000000006060303018180C0C067F
:10473000060000000000003C0C0C0C0C0C0C0C0CD7
:104740000C0C3C0000183C6600000000000000005B
:104750000000000000000000000000000000000059
:104760000000FF0000000018181800000000000002
:104770000000000000000000003C06063E66663EA9
:104780000000000000000060607C66666666667C73
:104790000000000000000000003C66606060663CB5
:1047A0000000000000000006063E66666666663E83
:1047B0000000000000000000003C66667E60603C77
:1047C000000000000000001E3030307E30303030FD
:1047D0000000000000000000003E66666666663E5F
:1047E00006067C0000000060607C666666666666A1
:1047F0000000000000001818007818181818187E1B
:104800000000000000000C0C003C0C0C0C0C0C0C0C
:104810000C0C7800000000606066666C786C666660
:104820000000000000000078181818181818187EEA
:104830000000000000000000007E6B6B6B6B6B6380
:104840000000000000000000007C66666666666688
:104850000000000000000000003C66666666663CE2
:104860000000000000000000007C66666666667C52
:104870006060600000000000003E66666666663E9E
:10488000060606000000000000666E706060606052
:104890000000000000000000003E60603C06067C56
:1048A0000000000000000030307E30303030301E1C
:1048B0000000000000000000006666666666663E56
:1048C00000000000000000000066666666663C1896
:1048D000000000000000000000636B6B6B6B36365D
:1048E00000000000000000000066663C183C6666A0
:1048F0000000000000000000006666666666663C18
:104900000C18F00000000000007E060C1830607EDD
:10491000000000000000000C181818306030181853
:10492000180C00000000001818181818181818188B
:1049300018181800000000301818180C060C181869
:104940001830000000000071DB8E00000000000045
:10495000000000000000000000000000010203044D
:1049600006070809A0860100400D0300801A060012
:1049700000350C0040420F0080841E0000093D00FD
:1049800000127A000024F40000366E010048E801AD
:10499000006CDC02B4490008000000202400000084
:1049A0001C340008D849000824000020BC0A00007C
:1049B0002C3400084001E00100000000000000006D
:1049C00010000000010000000000000000093D0090
:0849D0000000000000000000DF
:040000050800018965
:00000001FF
