:020000040800F2
:10000000980E00209D010008E7250008E11F000868
:10001000E525000871020008052B0008000000001B
:10002000000000000000000000000000332A00086B
:100030007302000800000000E9250008352A0008C6
:10004000B7010008B7010008B7010008B7010008B0
:10005000B7010008B7010008B7010008B7010008A0
:10006000B7010008B7010008B7010008B701000890
:10007000B7010008B7010008B7010008B701000880
:10008000B7010008B7010008B7010008B701000870
:10009000B7010008B7010008B7010008B701000860
:1000A000B7010008B7010008B7010008B701000850
:1000B000B7010008B7010008B7010008B701000840
:1000C000B7010008B7010008B7010008B701000830
:1000D000B7010008B7010008B7010008B701000820
:1000E000B7010008B7010008B7010008B701000810
:1000F000B7010008B7010008B7010008B701000800
:10010000B7010008B7010008B7010008B7010008EF
:10011000B7010008B7010008B7010008B7010008DF
:10012000B7010008B7010008B7010008B7010008CF
:10013000B7010008B7010008B7010008B7010008BF
:10014000B7010008B7010008B7010008B7010008AF
:10015000B7010008B7010008B7010008B70100089F
:10016000B7010008B7010008B7010008B70100088F
:10017000B7010008B7010008B7010008000000003F
:10018000B7010008B7010008DFF80CD000F02AF82A
:1001900000480047952B0008980E0020064880472D
:1001A00006480047FEE7FEE7FEE7FEE7FEE7FEE75C
:1001B000FEE7FEE7FEE7FEE7C12A00088901000826
:1001C000D2B201E000F8012B491EFBD27047002299
:1001D000F6E710B513460A4604461946FFF7F0FF46
:1001E000204610BD064C074D06E0E06840F00103D4
:1001F00094E8070098471034AC42F6D3FFF7C8FFE5
:10020000E42D0008042E000870B5044600688168DB
:1002100011F0010F28D18168144A114215D181686B
:10022000D5432940491C816000F0F0FD064616E0E8
:10023000816811F0010F03D181682940491C816058
:1002400000F0E4FD801B022809D9606D40F0100029
:100250006065A06D40F00100A065012070BD2068C0
:100260000168C943C907E3D1002070BD3F00008089
:10027000FEE770472DE9F047044690F850009AB029
:100280000D464FF00008012813D0012084F85000DB
:10029000304E20684FF00009B0420ED12E4F00972B
:1002A000384602F0D3F88246206802F0CFF860B1F9
:1002B0000EE002201AB0BDE8F087616D41F0200128
:1002C000616584F850900120F4E7BAF1000F09D07D
:1002D000606D40F0200060654FF0010884F8509098
:1002E0004046E7E71D4829681D4A0029816840F615
:1002F0001F7321F460411BD094F830C041EA4C31A7
:10030000D5F804C041EA0C018160B168BE6801F013
:10031000010106F001069268314302F00102114327
:10032000DCD1AA682968114382689A4311430EE020
:100330008160B168BD6801F0010105F001059268B6
:10034000294302F001021143C8D1816899438160B9
:10035000C4E70000000004500001045000030450F2
:10036000000204502DE9F84F00270446009790F84A
:100370005000DFF8B8930D46B846012811D0012689
:1003800084F85060206802F05DF860B1606D40F064
:10039000200060655FF0010784F85080384600F067
:1003A000DDB90220FBE768680C23052812D8022873
:1003B00007D0032807D0042807D0052807D0062037
:1003C00007E06B6006E0122003E0182001E04FF424
:1003D00080706860D5E90021206803EA9113184411
:1003E000036B01F01F014FF01F0C0CFA01FCC2F36C
:1003F000846223EA0C038A4013430363206802F0FB
:1004000021F88246206802F019F85AEA00001DD14E
:10041000AA682968206802F025F820686969C2681E
:10042000C2F3C102520091402A69042A0FD000EBA6
:1004300082002B68026EDFF8F8C203F0F84302EA8C
:100440000C020B431A4342F00041016672E00021A6
:1004500001F0EEFF400320684FF0000172D001F080
:10046000E7FF90FAA0F0B0FA80F1286842036ED05E
:1004700090FAA0F0B0FA80F0814204D10022114637
:10048000206801F0FEFF0121206801F0D1FF400348
:1004900020684FF001015DD001F0CAFF90FAA0F092
:1004A000B0FA80F12868420359D090FAA0F0B0FA6F
:1004B00080F0814204D100220121206801F0E1FF97
:1004C0000221206801F0B4FF400320684FF00201D0
:1004D00048D001F0ADFF90FAA0F0B0FA80F12868A2
:1004E000420344D090FAA0F0B0FA80F0814204D1E7
:1004F00000220221206801F0C4FF0321206801F0DE
:1005000097FF400320684FF0030133D001F090FFC4
:1005100090FAA0F0B0FA80F1286842032FD090FA48
:10052000A0F0B0FA80F0814204D1002203212068BB
:1005300001F0A7FF2068816811F0010F22D0ACE024
:1005400000E004E001F074FFC0F384618DE7C0F3C4
:10055000846091E701F06CFFC0F38461A2E7C0F30F
:100560008460A6E701F064FFC0F38461B7E7C0F3DD
:100570008460BBE701F05CFFC0F38461CCE7C0F3AB
:100580008460D0E72A7B296850F8B03FC1F3120C91
:1005900023EA0C0302F0180C664A22FA0CF20A4015
:1005A00013430360E968494577D1286841031CD0AB
:1005B00090FAA0F1B1FA81F1491C01F01F0109295B
:1005C0004FEA403132D8002912D000BF90FAA0F192
:1005D000B1FA81F101F1010101F01F0106FA01F602
:1005E00009D100BFC0F3846109E0C0F38461E3E78F
:1005F000C0F38461EEE790FAA0F1B1FA81F101F164
:10060000010101F01F0146EA816102D1C0F384605B
:1006100003E090FAA0F0B0FA80F000F1010000F0E1
:100620001F0000EB400041EA005132E000290ED0EB
:1006300090FAA0F1B1FA81F101F1010101F01F017D
:1006400006FA01F606D100BFC0F3846106E0C0F3EC
:100650008461F1E790FAA0F1B1FA81F101F10101B1
:1006600001F01F0146EA816102D1C0F3846003E01A
:1006700090FAA0F0B0FA80F000F1010000F01F0045
:100680002D4A00EB400002EB005041EA000141F02E
:100690000071AA68206801F0E5FE28482A68024235
:1006A0003FF47AAE26488168264E274B274D01F04D
:1006B000E071B2421CD10E021AD422689A4202D0D2
:1006C000AA427FF469AE826841F4000122F0E07230
:1006D0000A4382601E481F490068B0FBF1F000EB3E
:1006E0004000800000E0401E00900028FBD153E64F
:1006F000194EB24209D1CE0107D422689A4201D0E4
:10070000AA42F4D141F080710AE06FF00045EA425C
:10071000EDD14A02EBD422689A42E8D141F480013B
:10072000826822F0E0720A43826035E600007F4072
:1007300000F0FF03FFFF0700000020FE000008801C
:1007400000030450000052C700000450000204508F
:1007500010000020400D0300000084CB18BCBDE851
:10076000E08F0068006C7047F8B54FF0000504009A
:100770002E46009502D0606D10B107E00120F8BD53
:10078000204600F0D5F8A66584F85060206881689E
:10079000C1F3407119B181685B4A114081602068E2
:1007A0008168C1F3007179B98168584A114041F0FC
:1007B00080518160564857490068B0FBF1F000E075
:1007C000401E00900028FBD120688168C1F30071B1
:1007D00041B9616D41F010016165A16D41F0010108
:1007E000A165012501F02EFE616DC90600D430B16E
:1007F000606D40F01000606501252846F8BD606D11
:1008000020F4807040F0020060652068806810F07D
:10081000010F15D140488068404900F00100896807
:1008200001F0010108433E49896801F001010843D4
:1008300006D13C4960688A6822F47C1202438A60CF
:10084000E168606B627E0843A16841EA4231084377
:1008500094F8201040EA0140012904D1A18C324AC9
:1008600002EB41410843A16A29B101F47071E26AC7
:10087000014342EA01002268D1682C4B1940014330
:10088000D160206801F0DEFD0646206801F0D6FD4B
:10089000304315D1207E94F830102268800340EA5E
:1008A0004101D06844F2020398430843D06094F8B1
:1008B000380001280CD02068016921F00101016194
:1008C000206901282068016B21F00F0111D013E08D
:1008D000D4E90F010843D4E91112114308432168F8
:1008E0000A6940F2FC739A43104340F0010008612A
:1008F000E6E7E269521E11430163606D20F00200D9
:1009000040F00100606578E7C0FFFF5FC0FFFF7F38
:1009100010000020400D03000000045000010450AE
:1009200000020450000304500000FEFF07C0F0FF67
:1009300010B586B0044614216846FFF748FC1149FB
:10094000206888421BD11048C16C41F40051C16439
:10095000C16C01F400510591C16C41F00101C16409
:10096000C06C694600F001000590022000900B2049
:100970000190002002904FF0904000F00FF906B077
:1009800010BD000000000450001002402DE9F041AD
:10099000044639480F46816801F01F05616908293E
:1009A0000FD085B1052D0ED0092D0CD0806800F434
:1009B000604060B1606D40F0200060650120BDE8DE
:1009C000F081082604E02068C068C007F1E704262B
:1009D00000F01CFA804608E0781C06D000F016FAF9
:1009E000A0EB0800B8420FD877B120680068304209
:1009F000F2D0606D40F400706065206801F02AFD5F
:100A0000D0B1607E48B117E0606D40F004006065D1
:100A1000002084F850000320D1E720680068000718
:100A20000AD5606D20F480706065606DC00403D4E9
:100A3000606D40F001006065104A206810499042E6
:100A400001D10B4600E00346834210D07DB1052D55
:100A50000DD0092D0BD0904200D00146C968082E58
:100A600007D0490401D40C2101600020A7E7C16828
:100A7000F5E70821F8E700000003045000010450E6
:100A8000000004502DE9F04104463748806800F02A
:100A90001F05206801F0D6FC18B102210846BDE808
:100AA000F08194F8500001280CD0012084F8500007
:100AB0002046FFF7A9FB01004FF0000304D084F8A3
:100AC0005030EBE70220EAE7606D40F601629043A8
:100AD00040F480706065254A2068254E904201D11F
:100AE000374600E00746874200D01DB9676D27F4FE
:100AF00080176765676DFF0404D5A76D27F00607AB
:100B0000A76500E0A3651C27076084F850302068C3
:100B1000904201D1334600E00346834215D0A5B18F
:100B2000052D12D0092D10D0636D43F48013636539
:100B3000904200D13046C0688001AFD5606D20F48E
:100B4000005040F480506065A8E7C268920105D566
:100B5000626D22F4005242F4805262658268054B55
:100B60001A40121D826099E70003045000010450EE
:100B700000000450C0FFFF7F70B5044600F046F946
:100B80000546601C02D004484068044400F03EF969
:100B9000401BA042FAD370BD040000202DE9F04FA5
:100BA000DFF83492002309F1040A012403250AF135
:100BB000040B87B00F270BF1040E04E104FA03F6CF
:100BC00032407CD0D1F804C0BCF1010F08D0BCF198
:100BD000020F05D0BCF1110F02D0BCF1120F29D1C8
:100BE000D0F808C0CDF800C04FEA430C05FA0CF865
:100BF000CDF80CC0DDF800C02CEA080CCDF800C020
:100C0000D1F80C80DDF80CC008FA0CF8DDF800C053
:100C100048EA0C08C0F80880D0F8048091F804C0B5
:100C200028EA0608CCF3001C0CFA03FC4CEA080C7A
:100C3000C0F804C0D1F804806FEA080C5FEA8C7C2D
:100C400009D1D0F82CC02CEA060CC8F3C0069E408F
:100C500046EA0C06C662D0F80CC04FEA430805FA13
:100C600008F62CEA060CCDF8148002968E6806FA77
:100C700008F646EA0C06C6604E68022E01D0122E17
:100C800015D1DE0800EB86060396366A4FEA437CF0
:100C90004FEADC6807FA08FC26EA0C06D1F810C017
:100CA0000CFA08FC4CEA060C039EC6F820C0066845
:100CB000DDF808C026EA0C0691F804C000E081E0E7
:100CC000DDF814800CF0030C0CFA08FC4CEA060C5E
:100CD000C0F800C04E68F60074D5404ED6F860C02B
:100CE0004CF0010CC6F860C0366E23F0030C06F021
:100CF000010600963A4E66440296D6F808C09E0752
:100D00004FEA167807FA08F62CEA060CB0F1904F75
:100D100004D0344EB04203D101261BE0002619E076
:100D2000314EB04201D1022614E0304EB04201D122
:100D300003260FE02E4EB04201D104260AE02D4ECC
:100D4000B04201D1052605E02B4EB04201D1062666
:100D500000E0072606FA08F646EA0C06DDF808C0A9
:100D6000CCF80860D9F80060CC46D1F804809643EE
:100D70005FEAC83800D51643CCF80060DAF80060A6
:100D8000D446D1F8048096435FEA883800D51643EC
:100D9000CCF80060DBF80060DC46D1F804809643B4
:100DA0005FEAC82800D51643CCF80060DEF8006082
:100DB000F446D1F8048096435FEA882800D51643AC
:100DC000CCF800605B1C0A6832FA03F67FF4F6AEDA
:100DD00007B000F013B8000000040140001002400A
:100DE000000001400004004800080048000C0048D2
:100DF00000100048001400480018004830BCBDE84E
:100E0000C08F0AB181617047816270470148806874
:100E100070470000040000200248816842681144C5
:100E20008160704704000020094810B50168002463
:100E300041F480710160032000F064F8002000F0AC
:100E400009F808B1012401E000F026F8204610BDA1
:100E50000020024070B50E4E05460024706898B11F
:100E60004FF47A71B1FBF0F00A490968B1FBF0F078
:100E700001F0A2F840B9102D06D200222946501EDA
:100E800000F020F8356000E00124204670BD00002D
:100E90000400002010000020094808B5016E41F050
:100EA00001010166016E01F001010091816D41F0C7
:100EB00080518165806D00F08050009008BD000079
:100EC00000100240F0B40E4B1B680C46C3F3022323
:100ED000C3F10705042D00D90425191D072901D2E6
:100EE000002300E0DB1E012606FA05F1491E214021
:100EF00099409E40761E16403143F0BC01F003BE7F
:100F00000CED00E0064900F0070208684FF6FF0309
:100F1000184040EA0220034A10430860704700006E
:100F20000CED00E00000FA0570B504004FF000057C
:100F30000FD094F8320005280BD094F83200022824
:100F400007D094F8320094F832004FF4804610B184
:100F500004E0012070BD002084F83100204600F03C
:100F600067F82068016821F480510160E068082872
:100F700011D1A0682269A16940F00800114308431B
:100F800061690843E169084321680A6844F23E73D5
:100F90009A4310430860E0680C280DD1A068E2690C
:100FA000616940F00C001143084321680A6844F26B
:100FB0000E439A4310430860E06868B9D4E904120C
:100FC000A06811430843E169084321680A6844F2B4
:100FD0000E739A4310430860E069B04217D1A068CD
:100FE00041F61F71022809D0D4E9082040EA022006
:100FF000226853688B430343536008E0D4E90A0234
:1010000042EA0023226890688843184390600748AA
:101010000168626821F000411143016094F83200D8
:1010200010B9012084F83200284670BD00780040D5
:1010300010B586B0044614216846FFF7C8F8114978
:10104000206888421BD11048816D41F08041816544
:10105000816D01F080410591C16C41F00101C164D5
:10106000C06C694600F00100059009200090032043
:101070000190002002904FF09040FFF78FFD06B0E6
:1010800010BD000000780040001002402DE9F0473C
:1010900004004FF0000907D094F83200052803D06F
:1010A00094F83200012804D04FF001094846BDE809
:1010B000F0872068016801F00C0A016821F00C013A
:1010C00001602068016841F4804101602568A068E2
:1010D000F8B108352068016841F48051016020684A
:1010E000016821F4005101602068016841F00101AC
:1010F000016010270826286820F01F003843286068
:101100000120FFF739FD20680068000403D5BF1BEC
:1011100002E02D1DDEE737447608ECD1286820F088
:101120001F00384328600120FFF726FD2068006873
:10113000000405D428687F1C20F01F003843286075
:101140002068016841F40051016010264FF0080842
:10115000286820F4F85040EA062028600120FFF7B4
:101160000BFD20680068000401D5464401E0A6EBB1
:1011700008064FEA58005FEA0008E9D1286820F421
:10118000F85040EA062028600120FFF7F5FC2068AF
:101190000068000406D52868761C20F4F85040EA60
:1011A000062028602068016821F0010101602068A4
:1011B000016821F4805101604FF48040E061A06833
:1011C000022802D0C4E9086701E0C4E90A67206880
:1011D000016821F00C0141EA0A01016066E7002183
:1011E00038B190F83220052A03D090F83220012A35
:1011F00002D00121084670470268136843F00103DA
:101200001360042280F83220F4E700001649B0F59C
:10121000007F0868C0F3412009D0022805D0086883
:1012200020F4C06040F4806008600020704701280E
:10123000FBD0086820F4C06040F4007008600B48E0
:101240003222006850430A4AB0FBF2F0401C00E032
:10125000401E4A69520501D50028F9D14869400568
:10126000E3D503207047000000700040100000200C
:1012700040420F000248006800F4C0607047000060
:10128000007000402DE9F84F044600270088E54D26
:101290003E46010504F1200B1DD5606E78B1B0F516
:1012A000800F11D0B0F5000F04D0B0F5400F22D060
:1012B00001270FE0E86840F48030E8601BE000217F
:1012C000201D01F093F903E00021584601F024FAB3
:1012D000070010D03E462088C00426D5A06EC0B1BD
:1012E000B0F1807F1AD0B0F1007F0DD0B0F1407F17
:1012F00019D0012718E0D5F88800616E20F440006D
:101300000843C5F88800E6E7E86840F48030E86004
:1013100009E00021201D01F069F903E00021584691
:1013200001F0FAF90746F7B13E46206880033AD546
:10133000A86D4FF00008C00009D4A86D40F080509F
:10134000A865A86D4FF0010800F080500090DFF80C
:10135000D8A2DAF8001041F48071CAF80010FFF743
:1013600055FD814610E0D5F88800A16E20F0407050
:101370000843C5F88800D8E7FFF748FDA0EB09004F
:10138000022801D9032705E0DAF80000C005F3D5EB
:10139000002F7CD04FEA0706B8F1000F03D0A86DEC
:1013A00020F08050A8652078C00707D0D5F88800C5
:1013B000A16B20F003000843C5F88800207880075F
:1013C00007D5D5F88800E16B20F00C000843C5F87C
:1013D00088002078400707D5D5F88800216C20F0D8
:1013E00030000843C5F888002078000707D5D5F8F5
:1013F0008800616C20F0C0000843C5F888002078A0
:10140000C00607D5D5F88800A16C20F440700843C9
:10141000C5F888002078800607D5D5F88800E16CEB
:1014200020F440600843C5F888002088800507D56F
:10143000D5F88800E16D20F440200843C5F8880005
:101440002088400507D5D5F88800216E20F440108B
:101450000843C5F888002078400607D5D5F88800ED
:10146000216D20F440500843C5F88800207800061C
:1014700007D5D5F88800616D20F440400843C5F8D1
:1014800088002088C00509D5D5F8880000E01CE058
:10149000A16D20F440300843C5F8880020884FF043
:1014A000006780044FF080684FD5D5F88800E16E62
:1014B00020F040600843C5F88800E06EB8423CD197
:1014C000E86840F48010E8603FE0D5F8900010F440
:1014D000407015D0D4F88410814211D0D5F8900016
:1014E000D5F8901020F4407041F48031C5F8901088
:1014F000D5F8901021F48031C5F89010C5F890000F
:10150000C00710D0FFF782FC074641F2883906E099
:10151000FFF77CFCC11B494501D903263CE7D5F800
:1015200090008007F4D5D5F89000D4F8841020F40A
:1015300040700843C5F890002EE7404505D10121D1
:10154000201D01F053F800B106462068000317D5AE
:10155000D5F88800216F20F040600843C5F8880066
:10156000206FB84204D1E86840F48010E86007E0DA
:10157000404505D10121201D01F038F800B1064693
:101580002068400317D5D5F88800616F20F04060CF
:101590000843C5F88800606FB84204D1E86840F499
:1015A0008010E86007E0404505D10121201D01F0D1
:1015B0001DF800B10646208840041AD5D5F88800E9
:1015C000A16F20F040500843C5F88800A06FB0F12B
:1015D000805F03D0B0F1005F05D00AE00221201D3A
:1015E00001F004F803E00221584601F095F800B13B
:1015F00006462088000407D5D5F88800E16F20F062
:1016000080400843C5F888002068C00307D555F816
:10161000880FD4F8801020F000400843286030463E
:1016200000F004B8001002400070004018BCBDE893
:10163000E08F00002DE9F0470F46050058D0404EDE
:10164000306800F00700B84209D2306820F0070087
:1016500038433060306800F00700B84248D128783D
:10166000384CC0072CD06868032811D0022812D04B
:10167000216898B1490500293ADAA16821F00301EF
:101680000143A160FFF7C2FB804641F2883910E0B8
:1016900021688901EFE721688903ECE78907EAE718
:1016A000FFF7B4FBA0EB0801494502D90320BDE8D0
:1016B000F087A068696800F00C00B0EB810FEFD1F3
:1016C0002878800705D5A068A96820F0F0000843B5
:1016D000A060306800F00700B8420BD9306820F0F5
:1016E000070038433060306800F00700B84201D08E
:1016F0000120DCE72878400705D5A068E96820F4D8
:10170000E0600843A0602878000706D5A068296932
:1017100020F4605040EAC100A06000F01BF8A1680E
:10172000094AC1F30311515C01F01F01C840074988
:10173000086007480068BDE8F047FFF78BBB000072
:101740000020024000100240A42D000810000020DC
:101750000400002070B52549002318468A68CC682B
:1017600012F00C0204F00306214C4FEA640509D084
:101770000C2A05D0042A32D0082A00D1284670BD90
:10178000012E10D10B681B0704D4D1F89430C3F399
:10179000032302E00B68C3F30313164E56F82330FD
:1017A000DAB10C2AEBD1C86800F00300022818D087
:1017B000032818D01846CA68CB68C2F30212C3F3D4
:1017C00006234343521CB3FBF2F2C868C0F34160E6
:1017D000401C4000B2FBF0F070BD184670BD2046C2
:1017E00070BD2046E7E72846E5E70000001002400C
:1017F0000024F400B42D00082DE9F84304006FD054
:10180000FE4DA86800F00C06E86800F00307207899
:10181000C00664D576B10C2E01D1012F0AD0A06983
:10182000002828687AD040F001002860FFF7EEFA1F
:1018300080465DE02868800702D5A0690028DED0D8
:10184000216A2868000703D5286800F0F00004E04A
:10185000D5F89400F02202EA1010814216D9084609
:1018600000F0DEFF00283BD1286840F00800286027
:101870002868216A20F0F000084328606868E16960
:1018800020F47F4040EA0120686016E0286840F0BC
:10189000080028602868216A20F0F00008432860CA
:1018A0006868E16920F47F4040EA0120686026B959
:1018B000206A00F0B5FF0028D5D1FFF74BFFA968DB
:1018C000CF4AC1F30311515C01F01F01C840CD495B
:1018D0000860CD480068FFF7BDFA00287ED12EE0F1
:1018E000CAE000BFFFF792FAA0EB0800022876D802
:1018F00028688007F6D5286840F008002860286826
:10190000216A20F0F000084328606868E16920F44B
:101910007F4040EA0120686011E0FFE720F001000D
:101920002860FFF773FA804606E000BFFFF76EFA03
:10193000A0EB08000228DAD828688007F6D42078BF
:10194000C00740D0082E18D00C2E01D1032F14D080
:101950006068B0F5803F17D0B0F5A02F286817D089
:1019600020F480302860286820F480202860606897
:10197000E0B1FFF74BFA804614E02868800322D5D7
:101980006068002878D01EE0286840F48030EDE7D9
:1019900040F480202860F7E7FFF738FAA0EB080052
:1019A0006428A4D828688003F6D50CE0FFF72EFA47
:1019B000804605E0FFF72AFAA0EB0800642896D8D5
:1019C00028688003F6D4207880073BD5042E11D0F8
:1019D0000C2E01D1022F0DD0E06801E092E1F1E080
:1019E000002828681ED040F480702860FFF70EFAA7
:1019F00007460CE0286840050CD5E0680028C1D0F7
:101A000008E000BFFFF702FAC01B022893D828683D
:101A10004005F7D56868217C20F0F85040EA016065
:101A200068600FE020F480702860FFF7EFF9074648
:101A300005E000BFFFF7EAF9C01B0228B1D828680B
:101A40004005F7D42078000729D560690028D5F82B
:101A5000940012D040F00100C5F89400FFF7D6F9C9
:101A6000074604E0FFF7D2F9C01B022899D8D5F841
:101A700094008007F6D512E000E120F00100C5F8DF
:101A80009400FFF7C3F9074605E000BFFFF7BEF972
:101A9000C01B022885D8D5F894008007F6D420789A
:101AA000400766D5A86D0027C00008D4A86D40F097
:101AB0008050A865A86D012700F080500090534821
:101AC0000168C90512D40168814641F48071016042
:101AD000FFF79CF9804605E0FFF798F9A0EB0800B6
:101AE00002286FD8D9F80000C005F5D5A0680128F4
:101AF00016D00528D5F8900017D020F00100C5F8C1
:101B00009000D5F8900020F0040000BFC5F89000C8
:101B1000A06841F28839C0B1FFF778F980460FE03C
:101B2000D5F8900040F00100F0E740F00400C5F85F
:101B30009000F5E7FFF76AF9A0EB0801494541D8A5
:101B4000D5F890008007F5D50EE0FFF75FF98046E5
:101B500006E000BFFFF75AF9A0EB0801494531D86C
:101B6000D5F890008007F5D41FB1A86D20F0805003
:101B7000A865A06A38B302280AD00C2E7ED0286847
:101B800020F080702860286810F0205F77D0AAE0ED
:101B9000E868E26A00F0030191422BD1216B00F06A
:101BA000700209011039914224D1626B00F4FE41A8
:101BB000B1EB022F1ED1A26B00F40031072A03D033
:101BC000012202E09DE089E00022914212D1A18F22
:101BD00000F4C00249084905A1F50011914209D15C
:101BE00094F8401000F0C06049084906A1F1007166
:101BF00081425CD00C2E41D0286809E000100240E0
:101C0000A42D0008100000200400002000700040F7
:101C100040017ED42868C0007BD4286820F0807002
:101C20002860FFF7F3F8064605E000BFFFF7EEF87F
:101C3000801B022865D828688001F7D4D4E90B01FD
:101C40006FF00F0202EB01110843A18F5204490803
:101C500002EB4151626B41EA0221084394F84010C3
:101C60004FF07E42490802EB41610843A16B09092C
:101C700040EA4140E968284A114001E049E02EE08D
:101C80000843E860286840F080702860E86840F009
:101C90008070E860FFF7BAF8044604E0FFF7B6F892
:101CA000001B02282DD828688001F7D52FE028686E
:101CB00080012CD4286840F080702860E86840F0EB
:101CC0008070E860FFF7A2F8044604E0FFF79EF892
:101CD000001B022815D828688001F7D517E0E868AE
:101CE00020F00300E860E8680C490840E860FFF76E
:101CF0008DF8044608E000BFFFF788F8001B0228B3
:101D000002D90320BDE8F88328688001F4D40020BC
:101D1000F8E70120F6E700008C809DF9FFFFEEFE5A
:101D20002DE9F041040005D00025A56294F85D007E
:101D300018B107E00120BDE8F08184F85C5020462E
:101D400000F044F8022384F85D302068016821F037
:101D500040010160E0684FF4E066B04201D9002123
:101D600001E04FF48051B0F5706F02D0B04200D066
:101D7000A562276B012227B9B04201D9236300E095
:101D80002263D4E901031843D4E9043633431843EA
:101D9000238B03F400731843E3691843236A184341
:101DA000A36A184323681860636B606AA6691843C6
:101DB0000427E36807EA16463343184308432168BB
:101DC0004860256684F85D200020B4E710B586B031
:101DD000044614216846FEF7FAF913492068884240
:101DE0001FD11248016E41F480510166016E01F469
:101DF00080510591C16C41F01001C164C06C69460D
:101E000000F0100005904FF4604000900220019017
:101E10000020029003200390052004900448FEF760
:101E2000BDFE06B010BD00000030014000100240B1
:101E3000001000482DE9F84F044690F85C00002798
:101E40001D461646894601280DD04FF0010B84F837
:101E50005CB0FEF7DBFF804694F85D00BA460128CF
:101E600004D002279FE0022000F0A3B8B9F1000FD0
:101E70006FD0002E6DD0032084F85D00C4F860A000
:101E8000C4F83890A687E687C4F840A0A4F844A018
:101E9000A4F846A0C4F850A0C4F84CA0A068B0F5BF
:101EA000004F04D12068016841F48041016020683E
:101EB0000168490603D4016841F040010160E0680F
:101EC000B0F5E06F606823D908B1012E1CD1A06B7A
:101ED00021680088C86006E020688168890709D504
:101EE000A16B0988C160A06B801CA063E08F401EBD
:101EF000E08709E0FEF78AFFA0EB0800A84202D3C2
:101F0000681C01D046E0ADB3E08F0028E4D136E094
:101F100008B1012E30D1E08F0128A06B03D92168D0
:101F20000088C8600FE021680078087314E0E0873B
:101F300022E020688168890714D5E18F0129A16B0F
:101F400008D90988C160A06B801CA063E08F801E47
:101F5000EDE727E009780173A06B401CA063E08FD8
:101F6000401EE4E7FEF752FFA0EB0800A84202D3B0
:101F7000681C01D00EE06DB1E08F0028D9D1424637
:101F80002946204600F08AFC08B120202066A0687F
:101F900010B105E0032706E02068C1688068009062
:101FA000206E00B1012784F85DB084F85CA038464B
:101FB0005AE718BCBDE8E08F10B5401EB0F1807F35
:101FC00001D3012010BD4FF0E02460610F216017A4
:101FD00000F099FD0020A06107202061002010BDC5
:101FE000FEE7000030B500244FF4A07322464FF402
:101FF000F07500BF30F81210A14200D90C4699428A
:1020000000D20B46521CAA42F4DB30BD2DE9F0474A
:102010000E464FF4FA740746B4EB460F00D90C464F
:10202000DFF88490012291024D464846FEF7E9FE12
:102030004FF4006A002251462846FEF7E2FE4FEABE
:102040001728204600F040FE05460020F9B204E0C3
:1020500005F800802A18801C5170A042F8D3700047
:10206000B0FBF4F1B0FBF4F704FB110857B1002604
:1020700006E0A2B20A2329460C48FFF7DBFE761CD5
:10208000BE42F6D31FFA88F20A2329460748FFF713
:10209000D1FE012251464846FEF7B3FE2846BDE870
:1020A000F04700F04FBD000000100048B4000020D1
:1020B0002DE9F04110244FF490784CF218654FF45C
:1020C000F076A0B22B464246002100F091F9203470
:1020D000B442F6DD00244FF4A077A1B22B4632467D
:1020E000002000F02FF82034BC42F6DD4FF4FC64F1
:1020F000234642460021F02000F07AF9234632467A
:10210000BDE8F0410021084600F01CB8012211038F
:102110000148FEF776BE00000010004870B5084C7C
:102120000546002123886288084600F011F961887D
:10213000208841432846BDE87040FFF767BF000094
:102140000000002070B51D460D4B14465A88904281
:1021500014D21B88994211D203195B1E934201DBF2
:10216000121A94B20219521E92B20B4600F0F0F805
:1021700021462846BDE87040FFF748BF70BD00000B
:102180000000002010B5FFF7C1FF00F0ABFB00F02E
:10219000C1F8012000F0EAFD4FF47A70FEF7ECFC84
:1021A000B92000F0E3FDFF2000F0C4FD832000F023
:1021B000C1FD572000F0BEFDFF2000F0BBFD4FF435
:1021C0009670FEF7D9FCB02000F0D0FD682000F03A
:1021D000B1FDCC2000F0CAFD052000F0ABFD3A2097
:1021E00000F0C4FD552000F0A5FD362000F0BEFD36
:1021F000002000F09FFD352000F0B8FD002000F029
:1022000099FD442000F0B2FD002000F093FD022073
:1022100000F090FD112000F0A9FD9620FEF7ACFC27
:10222000292000F0A3FDBDE810403220FEF7A4BC39
:102230002DE9FF5F1C460E98154606B2331BA2EB34
:10224000010200D55B42002A00DA5242934207DDC8
:1022500008462146044628464FF00108354601E06D
:102260004FF00008A94205DD0A46294615462246D8
:1022700004B210466A1A0FFA82F909EBD9725610A5
:1022800002B2101B00D540420FFA80FB944201DAE3
:10229000012001E04FF0FF30824615E0B8F1000F59
:1022A00002D0B9B2A0B201E0A1B2B8B2009A00F077
:1022B00013F8A6EB0B0006B2002E03DA04EB0A00BB
:1022C00004B24E467F1C39B20F46A942E6DD00F04B
:1022D00000B83FBCBDE8C09F10B50D4B14465A88EE
:1022E000904213D21B88994210D25B1E521E9BB2A1
:1022F00092B200F02DF82C2000F038FD200A00F0FA
:1023000019FDE0B2BDE8104000F014BD10BD0000A2
:102310000000002070B50D4D4FF48054002221467E
:102320002846FEF76EFDC820FEF726FC002261104D
:102330002846FEF766FDC820FEF71EFC214628460B
:10234000BDE870400122FEF75CBD000000100048AF
:102350002DE9F04107461C4615460E462A2000F09E
:1023600005FD380A00F0E6FCF8B200F0E3FC280AAC
:1023700000F0E0FCE8B200F0DDFC2B2000F0F6FC01
:10238000300A00F0D7FCF0B200F0D4FC200A00F0D4
:10239000D1FCE0B200F0CEFCBDE8F0412C2000F012
:1023A000E5BC00002DE9F0410746362000F0DEFCD8
:1023B0000E4C4FF4A0764FF4F0756FB1012F0DD095
:1023C000022F0DD0032F05D15FF0E80000F0B2FC22
:1023D00065802680BDE8F081482002E02820F5E7EE
:1023E000882000F0A7FC66802580F3E7000000202D
:1023F00070B514460D4A1D465388984214D212886F
:10240000914211D20B195B1E934201DB521A94B216
:102410000A19521E93B20246FFF79AFF2146284638
:10242000BDE87040FFF7F2BD70BD00000000002065
:1024300000EB8100006E00F0F84070478068C0F348
:10244000C00070478068C0F3800070478068C0F3A8
:1024500080007047C06810F4406F01D000207047C2
:1024600001207047042303EAD15310B5184443698F
:10247000C1F3045107248C40A3438A4013434361B2
:1024800010BD00EB8100016E21F000411143016697
:102490007047000010B58AB00024069407941821F4
:1024A00068460894FDF793FE1948184901604FF4F7
:1024B0003011C0E901140821C460C0E90441047668
:1024C00001214176C16180F82040C0E90914C4624D
:1024D00080F830400903416380F83840FEF744F942
:1024E00006A90B480694FDF7C5FE0A480090062091
:1024F000CDE901047F2003900420CDE9040469465E
:102500000348FDF72FFF0AB010BD00000000045083
:102510001C0000204000201930B587B01421684607
:10252000FDF755FE1648C16C41F08001C164C16CD5
:1025300001F080010591C16C41F00101C164C16CE1
:1025400001F001010591C16C41F01001C164C06C42
:102550000C4D00F010004FF4E0540590002221468D
:102560002846FEF74EFC012000210094CDE9010130
:10257000039169462846FEF711FB07B030BD000005
:102580000010024000100048134882B0016E41F470
:1025900080510166006E114900F48050009010488F
:1025A0004FF4E06201604FF4827141600021C0E9A4
:1025B00002124FF400720161C0E905121022C0E955
:1025C000072107224162C0E90A1201630821416321
:1025D00002B0FFF7A5BB0000001002400030014030
:1025E000B4000020FEE77047704700002DE9F0417D
:1025F000444C05468846E0680026810728680DD0CF
:10260000E16801F00301814216D1A8B1E068696870
:10261000C0F30210401C88420ED120E0012804D0F3
:10262000022805D0032807D108E02168890701E0C6
:1026300021684905002907DB01265FE0216889033D
:1026400002D421684903F5E7E1686A686FF00F0377
:1026500021F0730103EB021211430143E160206892
:1026600020F080602060FEF7D1FB074605E000BF48
:10267000FEF7CCFBC01B022837D820680001F7D436
:10268000B8F1000F18D0B8F1010F1ED0287D4FF01F
:102690007E41400801EB4060A96840EA01202169C1
:1026A000194A114008432061206840F08060206092
:1026B000FEF7ACFB07461AE0A868E96800020909C2
:1026C00040EA41402169114AEBE7288A1049400855
:1026D00001EB4050A96840EA012021690D4AE0E77A
:1026E000FEF794FBC01B022801D9032606E02068F0
:1026F0000001F5D52069A969084320613046BDE88D
:10270000F081000000100240FF80FFF9FF80FDFF14
:102710000000E0FFFF809FFF2DE9F0413D4C0646A1
:102720008846E0680025810730680DD0E16801F037
:102730000301814216D1A8B1E0687168C0F30210AC
:10274000401C88420ED120E0012804D0022805D088
:10275000032807D108E02168890701E021684905BD
:10276000002907DB012551E02168890302D4216893
:102770004903F5E7E16872686FF00F0321F0730118
:1027800003EB021211430143E160206820F0805006
:102790002060FEF73BFB074605E000BFFEF736FB77
:1027A000C01B022829D820688000F7D4B8F1000F98
:1027B00015D0307C4FF07E41400801EB4060B1689D
:1027C00040EA01206169144A1140084360612068B1
:1027D00040F080502060FEF719FB07460FE0B0681C
:1027E000F1680002090940EA414061690B4AEBE7E0
:1027F000FEF70CFBC01B022801D9032506E0206868
:102800008000F5D560697169084360612846BDE8BC
:10281000F081000000100240FF80FFF9FF80FDFF03
:10282000F8B51C4D06460024A86DC00002D5FEF781
:1028300021FD0DE0A86D40F08050A865A86D00F066
:1028400080500090FEF716FDA96D21F08051A9651A
:10285000B0F5007F04D0802E07D94FF003040AE0C2
:10286000802E08D9A02E01D804E001D1022402E074
:10287000702E00D101240848016821F0070121438E
:102880000160006800F00700A04201D00120F8BDFF
:102890000020F8BD0010024000200240F8B51546A7
:1028A0000E460B460092044600224FF4C05100F041
:1028B0002BF888B93346002280212046009500F08D
:1028C0006EF848B9334600224FF4C06120460095A7
:1028D00000F01AF8002804D0206E40F02000206696
:1028E0000320F8BD00224FF400610148FEF789BAC9
:1028F0000010004801B501231A4669460148FFF758
:1029000099FA08BDB40000202DE9F0471D4617468E
:102910000E4604464FF4C068DDF820900CE04645B2
:1029200001D107B9007B681C06D0FEF76FFAA0EB57
:102930000900A84208D23DB1206881683140B942FF
:10294000EDD10020BDE8F0872068416821F0E0016A
:1029500041606068B0F5827F0BD1A068B0F5004F90
:1029600002D0B0F5806F04D12068016821F04001E9
:102970000160A06AB0F5005F09D12068016821F408
:10298000005101602068016841F40051016001209C
:1029900084F85D00002084F85C000320D2E72DE974
:1029A000F0411D4617460E460446DDF8188008E043
:1029B000681C06D0FEF72AFAA0EB0800A8420BD24A
:1029C00055B12068806836EA000030D00020B84257
:1029D000EED10020BDE8F0812068416821F0E001DF
:1029E00041606068B0F5827F0BD1A068B0F5004F00
:1029F00002D0B0F5806F04D12068016821F0400159
:102A00000160A06AB0F5005F09D12068016821F477
:102A1000005101602068016841F40051016001200B
:102A200084F85D00002084F85C000320D2E70120D8
:102A3000CDE77047FEF7F0B9F0B5B9B0442122A850
:102A4000FDF7C5FB142133A8FDF7C1FB88216846BB
:102A5000FDF7BDFB1020012400262290CDE9284679
:102A600002256020CDE92C542A9024200727CDE9A7
:102A70002E40CDE93075329522A8FEF7BDFE0F201D
:102A800033900320CDE934063696042133A83796D7
:102A9000FEF7D0FDA003009080031E901820CDE922
:102AA000024001942006CDE90650CDE90475684640
:102AB000FEF7E8FB6002FEF7A9FB39B0F0BD0000AD
:102AC0000D48016841F4700101600C48016841F053
:102AD00001010160002181600268094B1A40026017
:102AE0008214C260026822F480220260816102497D
:102AF000C00380390860704788ED00E00010024094
:102B0000FFFFF6EAFEE70907090E002804DB00F1E3
:102B1000E02080F80014704700F00F0000F1E02082
:102B200080F8141D704702E008C8121F08C1002A6F
:102B3000FAD170477047002001E001C1121F002A3E
:102B4000FBD1704710B5002821D0114B0022001F87
:102B5000196803E0814203D80A4649680029F9D17F
:102B600052B11368841A9C4204D100681844106062
:102B7000104602E0506000E0186039B102680B1A9C
:102B8000934203D10B681A4402604968416010BD4A
:102B90001400002008B5FEF747F9FFF74DFFFFF7D7
:102BA000BBFCFFF7F1FCFFF775FC444842494FF4CA
:102BB00000720160090541600821C1600021C0E97F
:102BC000042181618160C161FEF7AEF94FF47A7B27
:102BD0005846FDF7D1FF3948FEF72AFA3748FEF785
:102BE00055FA3648FEF7FBFA34483430FFF7EEF872
:102BF00032486438FDF746FFFFF7C4FA0120FFF7BB
:102C0000D1FB0020FFF78AFAFFF752FADFF8AC8019
:102C10004FF4EF7908F19808294F00244E464546B5
:102C2000264839466438FDF7B1FE48B92348643870
:102C3000FDF797FD4BF2D0514843000C25F81400E6
:102C4000641CA4B2B442EBD9A8461E4D0024B14680
:102C50004FF6E07A05EB440021B2B0F90200009093
:102C6000601C02B235F9143017460E460020FFF7FB
:102C7000DFFA08EB44013A46B1F90210009138F945
:102C8000143031465046FFF7D3FA641C4C45E1DB63
:102C9000FFF70EFA09489830FFF7A4F900205A46CA
:102CA0004FEA080131F8103025F81030401C80B28E
:102CB0009042F7D3B0E70000007800408000002089
:102CC000A0860100D8040020F0B50B30154D20F08F
:102CD00007010024144A0FE003688B420BD38B4298
:102CE00005D95E1A43184768C3E9006700E04368E6
:102CF000136002C004E0021D10680028ECD12046D9
:102D0000002802D1286808B10020F0BD064A074813
:102D10001060074A121A22F00702C0E900240120BD
:102D20002860D7E718000020140000209C0800202D
:102D3000980A002070B50C4C0646012291022046EC
:102D4000FEF75FF84FF40065002229462046FEF7A3
:102D500058F83046FFF7CEFD29462046BDE87040C2
:102D60000122FEF74EB800000010004870B50C4D6F
:102D700006464FF40064002221462846FEF741F83B
:102D8000002261102846FEF73CF83046FFF7B2FDFE
:102D900021462846BDE870400122FEF732B8000007
:102DA00000100048000000000000000001020304C1
:102DB00006070809A0860100400D0300801A0600DE
:102DC00000350C0040420F0080841E0000093D00C9
:102DD00000127A000024F40000366E010048E80179
:102DE000006CDC02042E0008000000201C00000023
:102DF000262B0008202E00081C0000207C0E00005E
:102E0000362B00084001E001100000000100000026
:102E10000000000000093D0000000000000000006C
:040000050800018965
:00000001FF
