:020000040800F2
:10000000800600209D0100086F130008E10F000822
:100010006D130008090200083116000800000000F6
:10002000000000000000000000000000871500082C
:100030000B02000800000000711300088915000879
:10004000B7010008B7010008B7010008B7010008B0
:10005000B7010008B7010008B7010008B7010008A0
:10006000B7010008B7010008B7010008B701000890
:10007000B7010008B7010008B7010008B701000880
:10008000B7010008B7010008B7010008B701000870
:10009000B7010008B7010008B7010008B701000860
:1000A000B7010008B7010008B7010008B701000850
:1000B000B7010008B7010008B7010008B701000840
:1000C000B7010008B7010008B7010008B701000830
:1000D000B7010008B7010008B7010008B701000820
:1000E000B7010008B7010008B7010008B701000810
:1000F000B7010008B7010008B7010008B701000800
:10010000B7010008B7010008B7010008B7010008EF
:10011000B7010008B7010008B7010008B7010008DF
:10012000B7010008B7010008B7010008B7010008CF
:10013000B7010008B7010008B7010008B7010008BF
:10014000B7010008B7010008B7010008B7010008AF
:10015000B7010008B7010008B7010008B70100089F
:10016000B7010008B7010008B7010008B70100088F
:10017000B7010008B7010008B7010008000000003F
:10018000B7010008B7010008DFF80CD000F02AF82A
:1001900000480047C1160008800600200648804736
:1001A00006480047FEE7FEE7FEE7FEE7FEE7FEE75C
:1001B000FEE7FEE7FEE7FEE7ED150008890100080F
:1001C000D2B201E000F8012B491EFBD27047002299
:1001D000F6E710B513460A4604461946FFF7F0FF46
:1001E000204610BD064C074D06E0E06840F00103D4
:1001F00094E8070098471034AC42F6D3FFF7C8FFE5
:100200003821000858210008FEE7704770B5044601
:1002100000F046F90546601C02D0044840680444DA
:1002200000F03EF9401BA042FAD370BD040000204C
:100230002DE9F04FDFF83492002309F1040A01247C
:1002400003250AF1040B87B00F270BF1040E04E11C
:1002500004FA03F632407CD0D1F804C0BCF1010F9F
:1002600008D0BCF1020F05D0BCF1110F02D0BCF1D7
:10027000120F29D1D0F808C0CDF800C04FEA430CC6
:1002800005FA0CF8CDF80CC0DDF800C02CEA080C1B
:10029000CDF800C0D1F80C80DDF80CC008FA0CF8DD
:1002A000DDF800C048EA0C08C0F80880D0F80480E7
:1002B00091F804C028EA0608CCF3001C0CFA03FCF1
:1002C0004CEA080CC0F804C0D1F804806FEA080CAE
:1002D0005FEA8C7C09D1D0F82CC02CEA060CC8F35C
:1002E000C0069E4046EA0C06C662D0F80CC04FEA33
:1002F000430805FA08F62CEA060CCDF8148002969D
:100300008E6806FA08F646EA0C06C6604E68022EAB
:1003100001D0122E15D1DE0800EB86060396366A50
:100320004FEA437C4FEADC6807FA08FC26EA0C0631
:10033000D1F810C00CFA08FC4CEA060C039EC6F873
:1003400020C00668DDF808C026EA0C0691F804C053
:1003500000E081E0DDF814800CF0030C0CFA08FCDE
:100360004CEA060CC0F800C04E68F60074D5404E4A
:10037000D6F860C04CF0010CC6F860C0366E23F0B1
:10038000030C06F0010600963A4E66440296D6F833
:1003900008C09E074FEA167807FA08F62CEA060C02
:1003A000B0F1904F04D0344EB04203D101261BE08F
:1003B000002619E0314EB04201D1022614E0304E41
:1003C000B04201D103260FE02E4EB04201D10426E7
:1003D0000AE02D4EB04201D1052605E02B4EB04279
:1003E00001D1062600E0072606FA08F646EA0C06C2
:1003F000DDF808C0CCF80860D9F80060CC46D1F828
:10040000048096435FEAC83800D51643CCF80060F4
:10041000DAF80060D446D1F8048096435FEA883861
:1004200000D51643CCF80060DBF80060DC46D1F85C
:10043000048096435FEAC82800D51643CCF80060D4
:10044000DEF80060F446D1F8048096435FEA88281D
:1004500000D51643CCF800605B1C0A6832FA03F63C
:100460007FF4F6AE07B000F013B8000000040140BE
:10047000001002400000014000040048000800484D
:10048000000C004800100048001400480018004804
:1004900030BCBDE8C08F0AB181617047816270478E
:1004A000014880687047000004000020024881680D
:1004B000426811448160704704000020094810B56B
:1004C0000168002441F480710160032000F064F8A9
:1004D000002000F009F808B1012401E000F026F83E
:1004E000204610BD0020024070B50E4E0546002487
:1004F000706898B14FF47A71B1FBF0F00A4909685D
:10050000B1FBF0F000F058FD40B9102D06D20022EA
:100510002946501E00F020F8356000E001242046F6
:1005200070BD00000400002010000020094808B53C
:10053000016E41F001010166016E01F001010091BF
:10054000816D41F080518165806D00F08050009098
:1005500008BD000000100240F0B40E4B1B680C46B2
:10056000C3F30223C3F10705042D00D90425191D87
:10057000072901D2002300E0DB1E012606FA05F15F
:10058000491E214099409E40761E16403143F0BCE2
:1005900001F04FB80CED00E0064900F007020868D2
:1005A0004FF6FF03184040EA0220034A1043086058
:1005B000704700000CED00E00000FA051649B0F5A8
:1005C000007F0868C0F3412009D0022805D00868E0
:1005D00020F4C06040F4806008600020704701286B
:1005E000FBD0086820F4C06040F4007008600B483D
:1005F0003222006850430A4AB0FBF2F0401C00E08F
:10060000401E4A69520501D50028F9D148694005C4
:10061000E3D5032070470000007000401000002068
:1006200040420F000248006800F4C06070470000BC
:10063000007000402DE9F0470F46050058D0404EAD
:10064000306800F00700B84209D2306820F0070097
:1006500038433060306800F00700B84248D128784D
:10066000384CC0072CD06868032811D0022812D05B
:10067000216898B1490500293ADAA16821F00301FF
:100680000143A160FFF70CFF804641F2883910E07A
:1006900021688901EFE721688903ECE78907EAE728
:1006A000FFF7FEFEA0EB0801494502D90320BDE893
:1006B000F087A068696800F00C00B0EB810FEFD103
:1006C0002878800705D5A068A96820F0F0000843C5
:1006D000A060306800F00700B8420BD9306820F005
:1006E000070038433060306800F00700B84201D09E
:1006F0000120DCE72878400705D5A068E96820F4E8
:10070000E0600843A0602878000706D5A068296942
:1007100020F4605040EAC100A06000F01BF8A1681E
:10072000094AC1F30311515C01F01F01C840074998
:10073000086007480068BDE8F047FFF7D5BE000035
:100740000020024000100240F820000810000020A5
:100750000400002070B52549002318468A68CC683B
:1007600012F00C0204F00306214C4FEA640509D094
:100770000C2A05D0042A32D0082A00D1284670BDA0
:10078000012E10D10B681B0704D4D1F89430C3F3A9
:10079000032302E00B68C3F30313164E56F823300D
:1007A000DAB10C2AEBD1C86800F00300022818D097
:1007B000032818D01846CA68CB68C2F30212C3F3E4
:1007C00006234343521CB3FBF2F2C868C0F34160F6
:1007D000401C4000B2FBF0F070BD184670BD2046D2
:1007E00070BD2046E7E72846E5E70000001002401C
:1007F0000024F400082100082DE9F84304006FD01C
:10080000FE4DA86800F00C06E86800F003072078A9
:10081000C00664D576B10C2E01D1012F0AD0A06993
:10082000002828687AD040F001002860FFF738FEE1
:1008300080465DE02868800702D5A0690028DED0E8
:10084000216A2868000703D5286800F0F00004E05A
:10085000D5F89400F02202EA1010814216D9084619
:1008600000F088FD00283BD1286840F0080028608F
:100870002868216A20F0F000084328606868E16970
:1008800020F47F4040EA0120686016E0286840F0CC
:10089000080028602868216A20F0F00008432860DA
:1008A0006868E16920F47F4040EA0120686026B969
:1008B000206A00F05FFD0028D5D1FFF74BFFA96843
:1008C000CF4AC1F30311515C01F01F01C840CD496B
:1008D0000860CD480068FFF707FE00287ED12EE0B3
:1008E000CAE000BFFFF7DCFDA0EB0800022876D8C5
:1008F00028688007F6D5286840F008002860286836
:10090000216A20F0F000084328606868E16920F45B
:100910007F4040EA0120686011E0FFE720F001001D
:100920002860FFF7BDFD804606E000BFFFF7B8FD79
:10093000A0EB08000228DAD828688007F6D42078CF
:10094000C00740D0082E18D00C2E01D1032F14D090
:100950006068B0F5803F17D0B0F5A02F286817D099
:1009600020F480302860286820F4802028606068A7
:10097000E0B1FFF795FD804614E02868800322D59A
:100980006068002878D01EE0286840F48030EDE7E9
:1009900040F480202860F7E7FFF782FDA0EB080015
:1009A0006428A4D828688003F6D50CE0FFF778FD0A
:1009B000804605E0FFF774FDA0EB0800642896D898
:1009C00028688003F6D4207880073BD5042E11D008
:1009D0000C2E01D1022F0DD0E06801E092E1F1E090
:1009E000002828681ED040F480702860FFF758FD6A
:1009F00007460CE0286840050CD5E0680028C1D007
:100A000008E000BFFFF74CFDC01B022893D8286800
:100A10004005F7D56868217C20F0F85040EA016075
:100A200068600FE020F480702860FFF739FD07460A
:100A300005E000BFFFF734FDC01B0228B1D82868CD
:100A40004005F7D42078000729D560690028D5F83B
:100A5000940012D040F00100C5F89400FFF720FD8B
:100A6000074604E0FFF71CFDC01B022899D8D5F803
:100A700094008007F6D512E000E120F00100C5F8EF
:100A80009400FFF70DFD074605E000BFFFF708FDE6
:100A9000C01B022885D8D5F894008007F6D42078AA
:100AA000400766D5A86D0027C00008D4A86D40F0A7
:100AB0008050A865A86D012700F080500090534831
:100AC0000168C90512D40168814641F48071016052
:100AD000FFF7E6FC804605E0FFF7E2FCA0EB08002C
:100AE00002286FD8D9F80000C005F5D5A068012804
:100AF00016D00528D5F8900017D020F00100C5F8D1
:100B00009000D5F8900020F0040000BFC5F89000D8
:100B1000A06841F28839C0B1FFF7C2FC80460FE0FF
:100B2000D5F8900040F00100F0E740F00400C5F86F
:100B30009000F5E7FFF7B4FCA0EB0801494541D868
:100B4000D5F890008007F5D50EE0FFF7A9FC8046A8
:100B500006E000BFFFF7A4FCA0EB0801494531D82F
:100B6000D5F890008007F5D41FB1A86D20F0805013
:100B7000A865A06A38B302280AD00C2E7ED0286857
:100B800020F080702860286810F0205F77D0AAE0FD
:100B9000E868E26A00F0030191422BD1216B00F07A
:100BA000700209011039914224D1626B00F4FE41B8
:100BB000B1EB022F1ED1A26B00F40031072A03D043
:100BC000012202E09DE089E00022914212D1A18F32
:100BD00000F4C00249084905A1F50011914209D16C
:100BE00094F8401000F0C06049084906A1F1007176
:100BF00081425CD00C2E41D0286809E000100240F0
:100C0000F8200008100000200400002000700040C0
:100C100040017ED42868C0007BD4286820F0807012
:100C20002860FFF73DFC064605E000BFFFF738FCF3
:100C3000801B022865D828688001F7D4D4E90B010D
:100C40006FF00F0202EB01110843A18F5204490813
:100C500002EB4151626B41EA0221084394F84010D3
:100C60004FF07E42490802EB41610843A16B09093C
:100C700040EA4140E968284A114001E049E02EE09D
:100C80000843E860286840F080702860E86840F019
:100C90008070E860FFF704FC044604E0FFF700FC06
:100CA000001B02282DD828688001F7D52FE028687E
:100CB00080012CD4286840F080702860E86840F0FB
:100CC0008070E860FFF7ECFB044604E0FFF7E8FB08
:100CD000001B022815D828688001F7D517E0E868BE
:100CE00020F00300E860E8680C490840E860FFF77E
:100CF000D7FB044608E000BFFFF7D2FB001B022829
:100D000002D90320BDE8F88328688001F4D40020CC
:100D1000F8E70120F6E700008C809DF9FFFFEEFE6A
:100D20002DE9F041040005D00025A56294F85D008E
:100D300018B107E00120BDE8F08184F85C5020463E
:100D400000F044F8022384F85D302068016821F047
:100D500040010160E0684FF4E066B04201D9002133
:100D600001E04FF48051B0F5706F02D0B04200D076
:100D7000A562276B012227B9B04201D9236300E0A5
:100D80002263D4E901031843D4E9043633431843FA
:100D9000238B03F400731843E3691843236A184351
:100DA000A36A184323681860636B606AA6691843D6
:100DB0000427E36807EA16463343184308432168CB
:100DC0004860256684F85D200020B4E710B586B041
:100DD000044614216846FFF7FAF91349206888424F
:100DE0001FD11248016E41F480510166016E01F479
:100DF00080510591C16C41F01001C164C06C69461D
:100E000000F0100005904FF4604000900220019027
:100E10000020029003200390052004900448FFF76F
:100E200007FA06B010BD000000300140001002407B
:100E3000001000482DE9F84F044690F85C000027A8
:100E40001D461646894601280DD04FF0010B84F847
:100E50005CB0FFF725FB804694F85D00BA46012898
:100E600004D002279FE0022000F0A3B8B9F1000FE0
:100E70006FD0002E6DD0032084F85D00C4F860A010
:100E8000C4F83890A687E687C4F840A0A4F844A028
:100E9000A4F846A0C4F850A0C4F84CA0A068B0F5CF
:100EA000004F04D12068016841F48041016020684E
:100EB0000168490603D4016841F040010160E0681F
:100EC000B0F5E06F606823D908B1012E1CD1A06B8A
:100ED00021680088C86006E020688168890709D514
:100EE000A16B0988C160A06B801CA063E08F401ECD
:100EF000E08709E0FFF7D4FAA0EB0800A84202D38C
:100F0000681C01D046E0ADB3E08F0028E4D136E0A4
:100F100008B1012E30D1E08F0128A06B03D92168E0
:100F20000088C8600FE021680078087314E0E0874B
:100F300022E020688168890714D5E18F0129A16B1F
:100F400008D90988C160A06B801CA063E08F801E57
:100F5000EDE727E009780173A06B401CA063E08FE8
:100F6000401EE4E7FFF79CFAA0EB0800A84202D37A
:100F7000681C01D00EE06DB1E08F0028D9D1424647
:100F80002946204600F034FA08B120202066A068E7
:100F900010B105E0032706E02068C1688068009072
:100FA000206E00B1012784F85DB084F85CA038465B
:100FB0005AE718BCBDE8E08F10B5401EB0F1807F45
:100FC00001D3012010BD4FF0E02460610F216017B4
:100FD00000F02FFB0020A06107202061002010BD41
:100FE000FEE700002DE9F05F9046DDE90A721E463B
:100FF000022A54D84FEA162B4FEA182A012A20D089
:1010000001F1100293B2C21D92B200F033F92C200C
:1010100000F0F2FB2948002500EB071909EB050752
:101020000224A7F5805700BF97F8000EC4F107010E
:10103000C840C00735D0504600F0C2FB08F0FF00A2
:1010400033E001F1080293B2421D92B200F012F9AE
:101050002C2000F0D1FB1A48002400EBC709C4F192
:10106000060009EB00070225A7F58057C5F1070127
:1010700097F8000FC840C00705D0504600F0A0FB0D
:1010800008F0FF0003E0584600F09AFBF0B200F0D1
:1010900097FB6D1C082DE9DB641C082CDFDB00F0DE
:1010A00011B8584600F08CFBF0B200F089FB641CCC
:1010B000102CB9DB6D1C102DB0DBF0E7081B00080D
:1010C0003018000830BCBDE8C09F00002DE9F04793
:1010D0000E464FF4FA740746B4EB460F00D90C469F
:1010E000DFF88490012291024D464846FFF7D3F97C
:1010F0004FF4006A002251462846FFF7CCF94FEA28
:101100001728204600F026FB05460020F9B204E02F
:1011100005F800802A18801C5170A042F8D3700096
:10112000B0FBF4F1B0FBF4F704FB110857B1002653
:1011300006E0A2B20A2329460C48FFF77BFE761C84
:10114000BE42F6D31FFA88F20A2329460748FFF762
:1011500071FE012251464846FFF79DF92846BDE839
:10116000F04700F085BA0000001000481C00002085
:10117000012211030148FFF78EB90000001000485A
:1011800070B5084C0546002123886288084600F0A7
:1011900071F86188208841432846BDE87040FFF718
:1011A00095BF00000000002010B5FFF7E1FF00F040
:1011B00043F900F041F8012000F01EFB4FF47A7073
:1011C000FFF724F8B92000F017FBFF2000F0F8FA31
:1011D000832000F0F5FA572000F0F2FAFF2000F02B
:1011E000EFFA4FF49670FFF711F8B02000F004FB0F
:1011F000682000F0E5FACC2000F0FEFA052000F0AF
:10120000DFFA3A2000F0F8FA552000F0D9FA112060
:1012100000F0F2FA9620FEF7F9FF292000F0ECFA30
:101220003220FEF7F3FF362000F0E6FABDE810406A
:10123000202000F0C5BA000070B50D4D4FF4805469
:10124000002221462846FFF726F9C820FEF7DEFFD8
:10125000002261102846FFF71EF9C820FEF7D6FFCE
:1012600021462846BDE870400122FFF714B900006E
:10127000001000482DE9F04107461C4615460E4671
:101280002A2000F0B9FA380A00F09AFAF8B200F011
:1012900097FA280A00F094FAE8B200F091FA2B20AD
:1012A00000F0AAFA300A00F08BFAF0B200F088FAE7
:1012B000200A00F085FAE0B200F082FABDE8F041C1
:1012C0002C2000F099BA00002DE9F04107463620A5
:1012D00000F092FA0E4C4FF4A0764FF4F0756FB117
:1012E000012F0DD0022F0DD0032F05D15FF0E800A4
:1012F00000F066FA65802680BDE8F081482002E0B3
:101300002820F5E7882000F05BFA66802580F3E767
:1013100000000020124882B0016E41F48051016645
:10132000006E104900F4805000900F484FF4E062C6
:1013300001604FF4827141600021C0E902124FF454
:1013400000720161C0E905120822C0E907210723E4
:101350004162C0E90A13C0E90C1202B0FFF7E0BC19
:1013600000100240003001401C000020FEE77047E2
:1013700070470000F8B51C4D06460024A86DC0005B
:1013800002D5FFF74FF90DE0A86D40F08050A86539
:10139000A86D00F080500090FFF744F9A96D21F08E
:1013A0008051A965B0F5007F04D0802E07D94FF099
:1013B00003040AE0802E08D9A02E01D804E001D150
:1013C000022402E0702E00D101240848016821F0B7
:1013D000070121430160006800F00700A04201D02E
:1013E0000120F8BD0020F8BD00100240002002409E
:1013F000F8B515460E460B460092044600224FF4FF
:10140000C05100F02BF888B93346002280212046D5
:10141000009500F06EF848B9334600224FF4C061E1
:101420002046009500F01AF8002804D0206E40F005
:10143000200020660320F8BD00224FF4006101481F
:10144000FFF729B80010004801B501231A46694684
:101450000148FFF7EFFC08BD1C0000202DE9F04714
:101460001D4617460E4604464FF4C068DDF820902E
:101470000CE0464501D107B9007B681C06D0FFF798
:101480000FF8A0EB0900A84208D23DB1206881689E
:101490003140B942EDD10020BDE8F08720684168B5
:1014A00021F0E00141606068B0F5827F0BD1A06857
:1014B000B0F5004F02D0B0F5806F04D1206801680C
:1014C00021F040010160A06AB0F5005F09D12068F9
:1014D000016821F4005101602068016841F4005165
:1014E0000160012084F85D00002084F85C00032086
:1014F000D2E72DE9F0411D4617460E460446DDF8B9
:10150000188008E0681C06D0FEF7CAFFA0EB0800B0
:10151000A8420BD255B12068806836EA000030D06E
:101520000020B842EED10020BDE8F081206841687B
:1015300021F0E00141606068B0F5827F0BD1A068C6
:10154000B0F5004F02D0B0F5806F04D1206801687B
:1015500021F040010160A06AB0F5005F09D1206868
:10156000016821F4005101602068016841F40051D4
:101570000160012084F85D00002084F85C000320F5
:10158000D2E70120CDE77047FEF790BF10B596B0C7
:1015900044216846FEF71BFE142111A8FEF717FE32
:1015A000102000900120002460210690CDE9074121
:1015B0000221CDE90A100C9024200D900720CDE9DE
:1015C0000E0168461091FFF717F90F2011900320C4
:1015D000CDE912041494042111A81594FFF72AF8F8
:1015E0004FF40070FEF7EAFF16B010BD0D48016819
:1015F00041F4700101600C48016841F00101016093
:10160000002181600268094B1A4002608214C260A6
:10161000026822F48022026081610249C00380399D
:101620000860704788ED00E000100240FFFFF6EA16
:10163000FEE70907090E002804DB00F1E02080F82E
:101640000014704700F00F0000F1E02080F8141D36
:10165000704702E008C8121F08C1002AFAD170477B
:101660007047002001E001C1121F002AFBD1704722
:1016700010B5002821D0114B0022001F196803E08B
:10168000814203D80A4649680029F9D152B113684A
:10169000841A9C4204D1006818441060104602E08D
:1016A000506000E0186039B102680B1A934203D110
:1016B0000B681A4402604968416010BD14000020A4
:1016C00086B0FEF7FBFEFFF761FF14216846FEF7C8
:1016D0007EFD1D48C16C41F08001C164C16C01F008
:1016E00080010591C16C41F01001C164C06C174DBF
:1016F00000F010004FF4E0540590002221462846E7
:10170000FEF7C9FE009401240021CDE901410391B7
:1017100069462846FEF78CFDFFF7FCFD0C48FFF7F5
:1017200055FBFFF741FD0020FFF72AFD0320FFF7DF
:10173000CBFD4620CDE9000400234FF4FC62A0213C
:10174000F020FFF74FFCFEE70010024000100048B9
:101750001C000020F0B50B30154D20F007010024CF
:10176000144A0FE003688B420BD38B4205D95E1AF3
:1017700043184768C3E9006700E04368136002C08C
:1017800004E0021D10680028ECD12046002802D198
:10179000286808B10020F0BD064A07481060074AD3
:1017A000121A22F00702C0E9002401202860D7E7BE
:1017B0001800002014000020840000208002002077
:1017C00070B50C4C0646012291022046FEF763FEDE
:1017D0004FF40065002229462046FEF75CFE3046A5
:1017E000FFF732FE29462046BDE870400122FEF791
:1017F00052BE00000010004870B50C4D06464FF474
:101800000064002221462846FEF745FE00226110B2
:101810002846FEF740FE3046FFF716FE21462846D2
:10182000BDE870400122FEF736BE000000100048FF
:101830000000000000000000040404040004000094
:101840000A0A0A00000000000A0A1F0A1F0A0A000A
:10185000040F140E051E04001819020408130300D7
:101860000C12140814120D000C04080000000000F3
:101870000204080808040200080402020204080026
:101880000004150E150400000004041F04040000E9
:10189000000000000C0408000000001F0000000011
:1018A00000000000000C0C00000102040810000001
:1018B0000E11131519110E00040C040404040E007B
:1018C0000E11010204081F001F02040201110E0084
:1018D00002060A121F0202001F101E0101110E0053
:1018E0000608101E11110E001F010204080808004E
:1018F0000E11110E11110E000E11110F01020C002C
:101900000001020408100000000C0C000C04080088
:10191000020408100804020000001F001F0000005D
:1019200008040201020408000E1101020400040070
:101930000E11010D15150E000E1111111F111100C0
:101940001E11111E11111E000E11101010110E008B
:101950001C12111111121C001F10101E10101F005C
:101960001F10101E101010000E11101711110E0074
:101970001111111F111111000E04040404040E00B2
:101980000702020202120C001112141814121100A4
:101990001010101010101F00111B1515111111003F
:1019A00011111915131111000E11111111110E0041
:1019B0001E11111E101010000E11111115120D0024
:1019C0001E11111E141211000F10100E01011E0025
:1019D0001F040404040404001111111111110E005C
:1019E00011111111110A04001111111115150E0018
:1019F00011110A040A1111001111110A0404040042
:101A00001F01020408101F000E08080808080E0035
:101A1000110A1F041F0404000E02020202020E003B
:101A2000040A1100000000000000000000001F0078
:101A3000080400000000000000000E010F110F005C
:101A400010101E1111111E0000000E1010110E00BA
:101A500001010D1311110F0000000E111F100E00D7
:101A60000609081C08080800000F11110F010E00DC
:101A7000101016191111110004000C0404040E00BA
:101A80000200060202120C001010121418141200A8
:101A90001808080808081C0000001A151511110084
:101AA000000016191111110000000E1111110E0085
:101AB00000001E111E10100000000F110F01010088
:101AC000000016191010100000000E100E011E006C
:101AD00008081C08080906000000111111130D0068
:101AE00000001111110A04000000111111150A0063
:101AF0000000110A040A1100000011110F010E006C
:101B000000001F0204081F00000000000000000089
:101B10000000000000000000000000183C3C3C18E1
:101B2000180018180000000000000066666600003B
:101B3000000000000000000000000036367F36364E
:101B4000367F3636000000000018183C66603018FA
:101B50000C06663C18180000000070D8DA760C18E5
:101B6000306E5B1B0E000000000000386C6C3860AB
:101B70006F66663B000000000000001818180000A7
:101B800000000000000000000000000C18183030B9
:101B900030303018180C00000000003018180C0C01
:101BA0000C0C0C18183000000000000000361C7FE0
:101BB0001C36000000000000000000000018187E25
:101BC00018180000000000000000000000000000E5
:101BD00000001C1C0C180000000000000000007E2B
:101BE00000000000000000000000000000000000F5
:101BF00000001C1C0000000000000006060C0C1871
:101C000018303060600000000000001E33373733AA
:101C10003B3B331E000000000000000C1C7C0C0C41
:101C20000C0C0C0C000000000000003C6666060C6A
:101C30001830607E000000000000003C6666061C54
:101C40000666663C00000000000000303036363684
:101C5000667F0606000000000000007E6060607C79
:101C600006060C78000000000000001C18307C669E
:101C70006666663C000000000000007E060C0C1842
:101C800018303030000000000000003C6666763CF2
:101C90006E66663C000000000000003C66666666FA
:101CA0003E0C18380000000000000000001C1C0062
:101CB00000001C1C0000000000000000001C1C00B4
:101CC00000001C1C0C180000000000060C183060FE
:101CD00030180C06000000000000000000007E002C
:101CE0007E000000000000000000006030180C06BC
:101CF0000C183060000000000000003C66660C1804
:101D000018001818000000000000007EC3C3CFDBDD
:101D1000DBCFC07F00000000000000183C66666654
:101D20007E666666000000000000007C6666667CD9
:101D30006666667C000000000000003C666660602D
:101D40006066663C00000000000000786C66666615
:101D500066666C78000000000000007E6060607CB9
:101D60006060607E000000000000007E6060607CBB
:101D700060606060000000000000003C666660601B
:101D80006E66663E00000000000000666666667EC5
:101D900066666666000000000000003C181818180F
:101DA0001818183C00000000000000060606060691
:101DB0000666663C0000000000000066666C6C78F9
:101DC0006C6C66660000000000000060606060608F
:101DD0006060607E000000000000006363776B6B52
:101DE0006B636363000000000000006363737B6F3C
:101DF00067636363000000000000003C666666667F
:101E00006666663C000000000000007C6666667C3A
:101E100060606060000000000000003C666666666E
:101E20006666663C0C0600000000007C6666667C08
:101E30006C666666000000000000003C66603018BA
:101E40000C06663C000000000000007E1818181800
:101E50001818181800000000000000666666666624
:101E60006666663C00000000000000666666666606
:101E700066663C18000000000000006363636B6B43
:101E80006B36363600000000000000666634181815
:101E90002C66666600000000000000666666663C10
:101EA00018181818000000000000007E06060C1824
:101EB0003060607E000000000000003C30303030B8
:101EC0003030303030303C0000000060603030187E
:101ED000180C0C06060000000000003C0C0C0C0C5A
:101EE0000C0C0C0C0C0C3C0000183C6600000000B4
:101EF00000000000000000000000000000000000E2
:101F0000000000000000FF0000000018181800008A
:101F1000000000000000000000000000003C060679
:101F20003E66663E0000000000000060607C666661
:101F30006666667C0000000000000000003C6660F1
:101F40006060663C0000000000000006063E666619
:101F50006666663E0000000000000000003C666609
:101F60007E60603C000000000000001E3030307ECB
:101F7000303030300000000000000000003E666697
:101F80006666663E06067C0000000060607C666651
:101F900066666666000000000000181800781818D1
:101FA0001818187E0000000000000C0C003C0C0CFF
:101FB0000C0C0C0C0C0C7800000000606066666C69
:101FC000786C666600000000000000781818181889
:101FD0001818187E0000000000000000007E6B6BE7
:101FE0006B6B6B630000000000000000007C666605
:101FF000666666660000000000000000003C666641
:102000006666663C0000000000000000007C66661A
:102010006666667C6060600000000000003E6666E8
:102020006666663E060606000000000000666E70EA
:10203000606060600000000000000000003E606022
:102040003C06067C0000000000000030307E30308E
:102050003030301E000000000000000000666666A0
:102060006666663E000000000000000000666666CE
:1020700066663C18000000000000000000636B6B07
:102080006B6B363600000000000000000066663C06
:10209000183C6666000000000000000000666666EE
:1020A0006666663C0C18F00000000000007E060C1E
:1020B0001830607E000000000000000C1818183076
:1020C00060301818180C00000000001818181818B4
:1020D0001818181818181800000000301818180CD4
:1020E000060C18181830000000000071DB8E00008C
:1020F00000000000000000000000000000000000E0
:102100000102030406070809A0860100400D030030
:10211000801A060000350C0040420F0080841E002B
:1021200000093D0000127A000024F40000366E0120
:102130000048E801006CDC02582100080000002083
:102140001C00000052160008742100081C0000202A
:1021500064060000621600084001E0011000000063
:10216000010000000000000000093D000000000028
:04217000000000006B
:040000050800018965
:00000001FF
